:020000040800F2
:1000000030040020D9000008E1000008E3000008E7
:1000100000000000000000000000000000000000E0
:10002000000000000000000000000000E5000008E3
:100030000000000000000000E7000008E9000008E0
:10004000EB000008EB000008EB000008EB000008E4
:10005000EB000008EB000008EB000008EB000008D4
:10006000EB000008EB000008EB00000800000000B7
:10007000EB0000080000000000000000EB0000089A
:10008000EB000008EB00000885020008EB00000808
:10009000EB000008EB00000800000000EB00000887
:1000A000EB000008EB000008EB000008EB00000884
:1000B000EB000008EB000008EB000008EB00000874
:1000C0000448854600F03EF80048004789060008CD
:1000D000C046C0463004002004488047044800471A
:1000E000FEE7FEE7FEE7FEE7FEE7FEE76502000843
:1000F000C100000830B50B46014600202022012433
:1001000009E00D46D5409D4205D31D469540491B4B
:100110002546954040191546521E002DF1DC30BD94
:10012000D2B201E00270401C491EFBD2704700228F
:10013000F6E710B513460A4604461946FFF7F0FFE6
:10014000204610BD064C0125064E05E0E36807CCAD
:100150002B430C3C98471034B442F7D3FFF7B4FF5D
:10016000C00A0008E00A0008FEB539488068382156
:100170000840102812D004DC002848D0082845D1B7
:1001800004E0182807D0202840D101E0314D4DE08F
:100190000125ED034AE07D252D0247E02C48C0688B
:1001A000C607F60F002E01D02A4C04E0002E01D124
:1001B000294C00E000242648C068F8210840C70800
:1001C0002348C068072109020840000A0290002F56
:1001D00000D120270298002801D108200290214652
:1001E000794308460299FFF785FF04461848C0681E
:1001F000032149040840400C0190012201988240EB
:1002000011462046FFF776FF05460FE000BF104875
:1002100000680321C9020840C10A012088400090FB
:100220000D480099FFF766FF054600BF00BF08486C
:100230008068072109020840000A800007490C581D
:1002400021462846FFF756FF05490860FEBD00001D
:100250000010024000127A000024F400800A000816
:100260002C000020034804498860044804490860C1
:10027000704700000000000800ED00E00024F400DA
:100280002C00002001201449C9680140814200D19E
:1002900000E0002100291DD001200F49096901401B
:1002A000814200D100E00021002913D00B480078E2
:1002B000401C0A49087008460078322804DB0020F8
:1002C00008700120064908700120C143024A1161EB
:1002D00000BF00BF70470000001000400000002079
:1002E0000100002010B586B0142101A8FFF71FFF00
:1002F00040200E49496B01430C4A516300BF00BFC7
:1003000000BF00BF0A490B480068FFF7F3FE441E18
:100310000194002002906320039000200490059037
:1003200001A9054800F008FB06B010BD001002400E
:10033000102700002C0000200010004010B50028FD
:1003400019DB1A4A03231B02D21883089B00D258D8
:100350008307DC0EFF23A3409A438B071B0E840701
:10036000E40EA3401A43114B032424021B198408F2
:10037000A4001A5118E00E4A03071B0F083B9B0804
:100380009B00D2588307DC0EFF23A3409A438B07C0
:100390001B0E8407E40EA3401A43054B0407240FE9
:1003A000083CA408A4001A5110BD000000E100E0C0
:1003B0001CED00E002E008C8121F08C1002AFAD1B3
:1003C00070477047002001E001C1121F002AFBD1D5
:1003D0007047000001200749C9680143054AD16000
:1003E00000BF00BF104600680121084311460860A5
:1003F00000BF70470010004000B585B0142168466A
:10040000FFF795FE27202349C96A0143214AD1629B
:1004100000BF00BF00BF00BF63208001009002202A
:1004200001900320049069460520000700F09AF926
:10043000194800906946194800F094F907204002D5
:1004400000906946164800F08DF9032000900120C5
:1004500001900020029003906946124800F082F952
:10046000032001901020009069460520000700F04D
:1004700079F90820009069460520000700F072F91C
:100480000420009069460520000700F06BF905B0D4
:1004900000BD000000100240F8FF00000004005002
:1004A000000800500014005010B50120000700F0B3
:1004B00037FA00BF124840680121084310494860DC
:1004C00000BF642000F02CF900BF0E480068FF2137
:1004D000013108430B49086000BF48150849096805
:1004E0000322120291430143054A116000BF00BF7D
:1004F00004480068911588430249086000BF10BD98
:10050000401002400070004000B589B024216846C8
:10051000FFF70DFEFFF7C8FFFF20013000F000FAE3
:100520000120800624494968024691430143224A3A
:10053000516000BF00BF1046006891150843114686
:10054000086000BF00BF084600684915084311460F
:10055000086000BF00BF084600680915084311463F
:10056000086000BF00BF08460068C9140843114670
:10057000086000BF00200090042001900005029058
:100580000F2080040390881404900F20C00605906B
:100590000120069080200890684600F07BF9012039
:1005A000400605494968024691430143024A5160A9
:1005B00000BF09B000BD00000024004010B51C4879
:1005C00000680121C903084319490860084600680A
:1005D000082108431649086016480068012189026D
:1005E0000843144908601248006810210843104964
:1005F0000860114802680168012000F083F90F4883
:1006000002680168022000F07DF90D480268016867
:10061000032000F077F9074802680168042000F021
:1006200071F9034802680168052000F06BF910BDFC
:100630002800002024000020180000201C000020BA
:100640002000002000B585B014216846FFF76FFD3B
:1006500004200B49C96A0143094AD16200BF00BFA7
:1006600000BF00BF0120C003009001200190029054
:10067000002003906946034800F074F805B000BDFF
:10068000001002400008005000F07CF900F038F83B
:10069000FFF7B2FEFFF7D6FFFFF724FEFFF79AFE43
:1006A00000F01CF8FFF700FFFFF72EFFFFF786FFB3
:1006B0000FE00848007800280BD00020054908709A
:1006C0000120C003044949694140034A516100BF08
:1006D00000BFEEE7010000200008005010B5002127
:1006E0001220FFF72BFE1220002805DBC206D20ED7
:1006F00001219140014A116000BF10BD00E100E0FE
:100700000648006904210843044908610846006955
:1007100001210843014908617047000000E000E042
:1007200010B504460C490D480068FFF7E3FC44434C
:1007300001200006844200D900E020460446601EE5
:10074000074948610020886100BF05480069C0036F
:10075000C00F0028F9D010BD40420F002C0000202F
:1007600000E000E0F8B507460C460025002621E031
:100770000121A940206808400646002E19D03146C4
:100780003846626800F04DF831463846A26800F0FD
:100790005DF8606802280CD1FF2E05D83146384636
:1007A000226900F017F804E031463846226900F06B
:1007B00023F86D1C2068E8400028D9D16068012822
:1007C00002D06068022804D13846E268216800F04F
:1007D00035F8F8BD30B5046A0B464B434B434B43E9
:1007E0001D01ED1A2346AB430C464C434C434C438E
:1007F00054432343036230BD30B50B0A5B430C0AFC
:1008000063430C0A63431C01E41A436AA3430C0AC2
:1008100064430D0A6C430D0A6C4354432343436203
:1008200030BD30B503680C464C4365006419A343E2
:100830000C464C4354432343036030BD10B543681A
:100840008B430C4654432343436010BD30B5C3680B
:100850000C464C4365006419A3430C464C43544377
:100860002343C36030BD00000348006840084000D7
:100870000149086070470000002400400146044818
:1008800080680840884201D1012070470020FCE7C1
:100890000024004010B50446FFF7E6FF00BF01202A
:1008A000FFF7ECFF0028FAD16168206A084321684D
:1008B00008432169084310490968104A1140084358
:1008C0000D490860E168A0680843A1690843E1692F
:1008D00008436169084308494968094A11400843C7
:1008E0000549486000BF08460068012108430249E5
:1008F000086000BF10BD00000024004053CFFFFF80
:10090000C2FF030630B5054B84001B59CC43A343FB
:100910001343024C8500635130BD00001424004095
:100920000449496B0143034A516300BF00BF00BF44
:10093000704700000010024010B58A68C26200BF14
:10094000026880239A430B691A4302604A6803686D
:100950007024A3431343036000BFCA6803680324E1
:100960002402A3431343036000BF0A68826200BFEE
:100970000122426100BF024AD343036100BF10BDA0
:100980005F1E000070B502203A4909688908890095
:100990000143384A116000BF00BF37480068911515
:1009A00008433549086000BF00BF00BF32480068F7
:1009B000012189020840800A0028F6D00020602129
:1009C0000122520213022C4CE4682C4D2C400546A7
:1009D0001D430D4315432C43274DEC6000BF00BF62
:1009E00028460068D10308432946086000BF00BFBD
:1009F00000BF21480068012149060840400E002838
:100A0000F6D000BF1C48C068491208431A49C860A4
:100A100000BF02208968C908C9000143164A9160D5
:100A200000BF00BF00BF144880683821084010286C
:100A3000F8D100201049896807221202914301432E
:100A40000D4A916000BF00BF11468968072212035A
:100A500091430143084A916000BF00BF1146896875
:100A60000722120491430143034A916000BFFFF73C
:100A70007BFB70BD002002400010024006F8F9FF29
:100A80000100000002000000040000000800000057
:100A90001000000020000000400000008000000066
:100AA0000100000001000000010000000100000042
:100AB0000200000004000000080000001000000018
:100AC000E00A00080000002030000000B403000825
:100AD000100B00083000002000040000C4030008D0
:100AE0000000000000000000000000000000000006
:100AF0000000000000000000FFFF0000FFFF0000FA
:100B0000FFFF0000FFFF0000FFFF00000024F400D3
:04000005080000C12E
:00000001FF
