:020000040800F2
:1000000078040020D9000008E1000008E30000089F
:1000100000000000000000000000000000000000E0
:10002000000000000000000000000000E5000008E3
:100030000000000000000000E7000008E9000008E0
:10004000EB000008EB000008EB000008EB000008E4
:10005000EB000008EB000008EB000008EB000008D4
:10006000EB00000891010008EB0000080000000010
:10007000EB0000080000000000000000EB0000089A
:10008000EB000008EB00000895070008EB000008F3
:10009000EB000008EB00000800000000EB00000887
:1000A000EB000008EB000008EB000008EB00000884
:1000B000EB000008EB000008EB000008EB00000874
:1000C0000448854600F052F800480047B52400086F
:1000D000C046C046780400200448804704480047D2
:1000E000FEE7FEE7FEE7FEE7FEE7FEE7E1060008C3
:1000F000C100000830B50B46014600202022012433
:1001000009E00D46D5409D4205D31D469540491B4B
:100110002546954040191546521E002DF1DC30BD94
:1001200070B500242546002801DA01244042002948
:1001300001DA01254942FFF7DDFFAC4200D0404221
:10014000002C00D0494270BDD2B201E00270401CC8
:10015000491EFBD270470022F6E710B513460A4647
:1001600004461946FFF7F0FF204610BD064C012556
:10017000064E05E0E36807CC2B430C3C984710344F
:10018000B442F7D3FFF7A0FF0C2D00082C2D000878
:1001900000210220124A14234B43D25802408242CB
:1001A00001D1012200E00022002A17D002200C49D0
:1001B000083909680140814201D1012100E0002194
:1001C00000290BD002200649083949680143044A36
:1001D000083A516000BF01200249087070470000D2
:1001E0000800024028000020002800D1704707497D
:1001F000096801600168491C002902D1044A117094
:1002000002E00321024A117000BFEFE7006000081E
:100210005200002070B51D4800681D4908601C2070
:100220001C49086100BF00BF1B4888601B488860EC
:1002300000BF00BF08464069C00F002821D1302010
:1002400002F0F4FA044612480168154802F02AFB4D
:1002500002E002F0E1FA70BD002CFAD10C4801680E
:100260000F4802F01FFB044602E002F0D5FAF2E765
:10027000002CFAD10A48056800BF05480068A8426A
:10028000FBD102F0C9FA00BFE5E7000048000020FA
:100290005400002000200240851A7AE591836E7C8C
:1002A000006000080146002901D1401E7047034844
:1002B000006808600A681046F8E70000006000085F
:1002C00010B500F011F9E02000F0DCF800F04CF976
:1002D000352000F0D7F800F047F9172000F0D2F8E9
:1002E00000F042F900F020F9022002F0D5F900F008
:1002F000FBF8E02000F0C6F800F036F9782000F0B6
:10030000C1F800F031F9662000F0BCF800F02CF9DB
:1003100000F00AF90C2002F0BFF900F0E5F8E12046
:1003200000F0B0F800F020F900F082F80002204957
:10033000086000F045F800F07BF81D4909680843A3
:100340001B49086000F03CF800F072F800F038F843
:1003500000F06EF800021749086000F031F800F074
:1003600067F81449096808431249086000F044F826
:1003700000F0DAF80E480068AF214843000C0E493F
:100380000880098820398A0088180921FFF7C8FEEB
:100390000A4908800748006864214843000C054961
:1003A000086008460068632801D96320086010BD12
:1003B000640000206C00002070000020720000200B
:1003C00010B502210B4802F0CBFA00F0F7F801213A
:1003D000084802F0C5FA052002F06AF90221054832
:1003E00002F0E9FA052002F063F90221014802F067
:1003F000B7FA10BD0014005010B502210B4802F0EE
:10040000AFFA00F0DBF80121084802F0D4FA052029
:1004100002F04EF90221054802F0CDFA052002F063
:1004200047F90221014802F09BFA10BD0014005068
:1004300070B5002400F0B0F800251DE0022110483E
:1004400002F08EFA0A2002F033F902210C4802F081
:10045000B2FA6004040C0120094909690140814293
:1004600000D100E00021002901D0601C84B20A20E4
:1004700002F01EF9681CC5B2082DDFDB204670BDF6
:100480000014005070B5044600F098F80221154899
:1004900002F066FA002522E080202040C0110028EA
:1004A00004D001210F4802F086FA03E001210D4833
:1004B00002F056FA6006040E052002F0F9F8022157
:1004C000084802F078FA052002F0F2F80221054807
:1004D00002F046FA052002F0EBF8681CC5B2082DC0
:1004E000DADB70BD0014005010B500F067F8012190
:1004F0000C4802F060FA02210A4802F05CFA0A2075
:1005000002F0D6F80121074802F02AFA0A2002F088
:10051000CFF80221034802F023FA0A2002F0C8F8BB
:1005200010BD00000014005010B500F047F8022183
:100530000C4802F015FA01210A4802F011FA0A20CB
:1005400002F0B6F80221074802F035FA0A2002F05C
:10055000AFF80121034802F02EFA0A2002F0A8F8B1
:1005600010BD00000014005010B500F015F8012176
:10057000084802F020FA052002F09AF80221054806
:1005800002F019FA052002F093F80221014802F066
:10059000E7F910BD0014005000B585B0142168467D
:1005A000FFF7D9FD01200090002001906946024824
:1005B00002F09CF905B000BD0014005000B585B0F4
:1005C00014216846FFF7C7FD01200090019000202C
:1005D00003906946024802F089F905B000BD0000A9
:1005E00000140050FEB539488068382108401028B2
:1005F00012D004DC002848D0082845D104E018288F
:1006000007D0202840D101E0314D4DE00125ED0318
:100610004AE07D252D0247E02C48C068C607F60F4A
:10062000002E01D02A4C04E0002E01D1294C00E01C
:1006300000242648C068F8210840C7082348C0683D
:10064000072109020840000A0290002F00D120274C
:100650000298002801D108200290214679430846DB
:100660000299FFF747FD04461848C0680321490472
:100670000840400C0190012201988240114620461A
:10068000FFF738FD05460FE000BF10480068032162
:10069000C9020840C10A0120884000900D48009915
:1006A000FFF728FD054600BF00BF08488068072106
:1006B00009020840000A800007490C5821462846D4
:1006C000FFF718FD05490860FEBD0000001002405C
:1006D00000127A000024F400CC2C000874000020E2
:1006E00003480449886004480449086070470000D2
:1006F0000000000800ED00E00024F4007400002079
:1007000000BF06480068012108430449086000BF93
:1007100000BF04200249086000BF70470004004089
:100720000024014010B586B0142101A8FFF713FD85
:1007300002201349496B0143114A516300BF00BFB6
:1007400000BF00BF0F4910480068FFF7D3FC441EEC
:100750000194002002900D48039000200490059021
:1007600001A90B4802F0C0F920200949496870220C
:1007700091430143064A516000BF06B010BD00001E
:100780000010024040420F0074000020FFFF0000F4
:100790000004004001202B49C9680140814200D17A
:1007A00000E0002100294BD00120264909690140C1
:1007B000814200D100E00021002941D02248007888
:1007C000401C2149087008460078642806DB002098
:1007D00008701E480078C0431C4908701C48007807
:1007E000401C1B49087008460078322809DB0020AD
:1007F000087018480078C04316490870012016494F
:10080000087016480078401C1449087008460078A3
:10081000192806DB0020087011480078C0431049F1
:10082000087010480068002804D00E480068401E78
:100830000C4908600120C143024A116100BF00BF9A
:100840007047000000100040040000200500002058
:1008500002000020030000205100002000000020C2
:10086000010000200800002010B586B0142101A866
:10087000FFF771FC40200E49496B01430C4A51635C
:1008800000BF00BF00BF00BF0A490B480068FFF768
:1008900031FC441E0194002002906320039000204C
:1008A0000490059001A9054802F01EF906B010BD9C
:1008B00000100240102700007400002000100040CB
:1008C00030B47446641E2578641CAB4204D3635D67
:1008D0005B00E31830BC18471D46F8E7002805DB2D
:1008E000C206D20E01219140014A116070470000FA
:1008F00000E100E010B5002819DB1A4A03231B02AF
:10090000D21883089B00D2588307DC0EFF23A34034
:100910009A438B071B0E8407E40EA3401A43114B26
:10092000032424021B198408A4001A5118E00E4A5B
:1009300003071B0F083B9B089B00D2588307DC0E64
:10094000FF23A3409A438B071B0E8407E40EA340AA
:100950001A43054B0407240F083CA408A4001A51AD
:1009600010BD000000E100E01CED00E010B5002823
:1009700019DB1A4A03231B02D21883089B00D258A2
:100980008307DC0EFF23A3409A438B071B0E8407CB
:10099000E40EA3401A43114B032424021B198408BC
:1009A000A4001A5118E00E4A03071B0F083B9B08CE
:1009B0009B00D2588307DC0EFF23A3409A438B078A
:1009C0001B0E8407E40EA3401A43054B0407240FB3
:1009D000083CA408A4001A5110BD000000E100E08A
:1009E0001CED00E002E008C8121F08C1002AFAD17D
:1009F00070477047002001E001C1121F002AFBD19F
:100A00007047000000B589B024216846FFF7A3FBBA
:100A10000120000502F05CF8002000900120000396
:100A2000079040100690801002900002039007206B
:100A30000490059000200890684601F0B1FD022066
:100A400001F0A6FD082001F0A3FD0221042001F021
:100A50008DFD0821042001F089FD00BF1A4840687F
:100A6000012108431849486000BF00BF084640689C
:100A70000121890308431449486000BF00208968A8
:100A8000490849000143104A916000BF00BF01209E
:100A90001146086000BF032001F00AFE00BF0120DC
:100AA000C0070949086000BF00BF0120C002064915
:100AB00009690140814201D1012100E000210029A2
:100AC000F3D009B000BD00000024014010B561481A
:100AD00000780300FFF7F4FE0504054344B0BA00B4
:100AE000B5E05D48007800281CD05C480068012112
:100AF0008902884359490860594800681021884391
:100B000057490860084600680121C9030843544951
:100B1000086008460068082108435149086000F051
:100B2000BBFB1BE04E4800680121C90388434C49C8
:100B3000086008460068082188434949086047481A
:100B4000006801218902084344490860444800685C
:100B5000102108434249086000F09EFB77E076E0F0
:100B600040480078002819D03F480078002815DD5B
:100B70003E480078002811D03B480078401E3A4992
:100B800008700020394908703448006810218843F3
:100B9000324908603448007800F06AFD3248007835
:100BA000002848DC2D480068102108432B490860C4
:100BB00000F068F92848007800281ED0274800680F
:100BC00001218902884325490860254800681021D1
:100BD000884323490860084600680121C903084387
:100BE0001F49086008460068082108431C4908603E
:100BF0001F48006800F03CFD1DE019480068012115
:100C0000C9038843164908600846006808218843DC
:100C100013490860114800680121890208430F49FF
:100C200008600F480068102108430D49086011480A
:100C3000006800F01DFD0AE00F480078002802D08F
:100C400000F02AFB01E000F0E3FA00E000BF00BF83
:100C500010BD0000520000200500002020000020F0
:100C6000240000200300002050000020510000203C
:100C700040000020440000200100002010B5314851
:100C800000780300FFF71CFE050405151B4B5B00F5
:100C900056E02D480078002805D00121C9032B48D3
:100CA00001F087FE04E00121C903284801F056FE47
:100CB00046E00121C903254801F07BFE40E02448BD
:100CC0000078002809D023480078002805DD01219C
:100CD000C9031E4801F06DFE32E01D48007800286F
:100CE00009D11C480078002805DD0121C9031748F7
:100CF00001F034FE24E01748007800280EDC12488A
:100D00000078002805D00121C903104801F051FEE8
:100D100004E00121C9030D4801F020FE10E00E4857
:100D20000078002805D00121C903084801F041FEE0
:100D300004E00121C903054801F010FE00E000BFF6
:100D400000BF10BD52000020050000200008005028
:100D500003000020500000200100002010B52C48A6
:100D60000068002800D010BD2A4800780300FFF773
:100D7000A7FD05040C2B344A4B00012025490870BF
:100D80007D20C000224908603FE0234800686428B5
:100D900019D921480068E1218900884213D21F48EF
:100DA000006864280FD91C4800681D4908601B486A
:100DB00000681C4908607D20C000154908600220B9
:100DC0001449087021E020E0BA2017490860FFF7B5
:100DD00021FA03200F49087017E01348FFF762FA61
:100DE000124908600020C0430860084600680E49A8
:100DF0000968884203D103200649087002E00420F4
:100E00000449087001E000E000BF00BF00BFAAE78E
:100E10000800002052000020300000203400002094
:100E2000380000203C000020480000204C0000203A
:100E300010B50E480078012816D100200B49087023
:100E40000B4909880B4A514308460B49FFF752F9F1
:100E50000A49086006494988064A51430846064936
:100E6000FFF748F90649086010BD0000280000207F
:100E70002A000020B80B0000FF0F00003400002003
:100E80003000002010B5BA203949086039480068A0
:100E900039490968884237D936490968364A12689B
:100EA000891AC8225143084631490968FFF722F9D7
:100EB000324908600A2131480068FFF71BF92328EE
:100EC00003D200202D49086021E00A212B48006848
:100ED000FFF710F964280BD22849096823396422E6
:100EE000514308464121FFF705F9244908600EE007
:100EF0000A2122480068FFF7FDF82149884206D9F7
:100F000008461E49086002E000201C4908601D498F
:100F100009681D4A1268914205D91A4909681A4A96
:100F20001268891A04E018490968164A1268891A71
:100F300008466421FFF7DEF8144908600846006897
:100F4000032804D908460068C01E086002E000209B
:100F50000E4908600D480068052802D905200B4994
:100F600008600A480068C100081A0849086010BDF6
:100F70004800002030000020380000204000002001
:100F80000F270000340000203C0000204400002017
:100F90001FB500200090019002900390009005483A
:100FA00001900548029002200390684601F0E8FB9A
:100FB0001FBD0000402401402A00002001200749F5
:100FC000C9680143054AD16000BF00BF10460068F0
:100FD000012108431146086000BF7047001000401F
:100FE00010B588B01C2101A8FFF7B5F801201A49F7
:100FF000096B0143184A116300BF00BF00BF00BF67
:101000000020019002900120039000200490102005
:101010000590402006904001079001A801F06AFB6E
:10102000002002210D4A14234343D2580A430B4B9C
:10103000142444431A5100BF01210920FFF796FCF4
:101040000920002805DBC206D20E01219140044A86
:10105000116000BF08B010BD00100240080002403F
:1010600000E100E000B585B014216846FFF773F891
:1010700027201D49C96A01431B4AD16200BF00BF36
:1010800000BF00BF63208001009002200190032078
:10109000049069460520000701F028FC13480090E1
:1010A0006946134801F022FC07204002009069467F
:1010B000104801F01BFC032000900120019000204B
:1010C0000290039069460C4801F010FC0320019047
:1010D000102000900320019069460520000701F0D0
:1010E00005FC05B000BD000000100240F8FF000044
:1010F00000040050000800500014005010B50120FA
:10110000000701F0D9FC00BF1248406801210843E4
:101110001049486000BF642001F0CAFA00BF0E48C1
:101120000068FF21013108430B49086000BF4815E2
:10113000084909680322120291430143054A1160DC
:1011400000BF00BF04480068911588430249086049
:1011500000BF10BD401002400070004000B589B0D3
:1011600024216846FEF7F7FFFFF7C8FFFF20013094
:1011700001F0A2FC012080062449496802469143FF
:101180000143224A516000BF00BF1046006891151C
:1011900008431146086000BF00BF084600684915B3
:1011A00008431146086000BF00BF084600680915E3
:1011B00008431146086000BF00BF08460068C91414
:1011C00008431146086000BF0020009004200190F1
:1011D000000502900F2080040390881404900F20D3
:1011E000C00605900120069080200890684601F016
:1011F0001DFC012040060549496802469143014310
:10120000024A516000BF09B000BD00000024004048
:1012100010B50F480068FF21C90088430C490860D9
:101220000C480068FF21C90088430A4908600A4841
:101230000068FF21C9008843074908600748006823
:101240005721C90088430549086001F0E7F810BD3F
:1012500014000020180000201C00002020000020A6
:1012600010B5074807490860074908600749086042
:10127000074908600749086001F0D0F810BD000078
:10128000FFFF000014000020180000201C000020B8
:10129000200000202400002010B51C480068FF2119
:1012A000C90088431949086019480068FF21C9002E
:1012B00088431749086017480068FF21C900884320
:1012C00014490860144800685721C900884312492E
:1012D00008600F4800680121890208430C49086032
:1012E00008460068FF2101310843094908600846A3
:1012F000006840210843064908600846006810213C
:1013000008430349086001F089F810BD140000206B
:10131000180000201C0000202000002070B50646A8
:10132000CC48006802210843CA490860CA480068DE
:10133000012189020843C8490860632E00DD632645
:10134000C648006806218843C4490860C44800684C
:1013500006218843C2490860C248006806218843C4
:10136000C0490860BB48006844218843B949086007
:10137000B9480068BC490840B74908600A213046AE
:10138000FEF7CEFEC4B22300FFF79AFA0A0607144E
:10139000212E3C444C5967756DE0AE4800684021F1
:1013A0000843AC490860AC48006820210843AA49BA
:1013B000086060E0A8480068AC490843A649086096
:1013C000A448006840210843A249086053E0A248AD
:1013D0000068E2210843A04908609E480068402157
:1013E00008439C49086046E09B480068FF21613142
:1013F0000843994908609748006840210843954987
:10140000086038E094480068FF21E33108439249BE
:10141000086030E0904800689349C94308438E490A
:10142000086028E08C480068A02108438A490860C9
:101430008848006840210843864908601BE08648C8
:1014400000688949C94308438349086081480068A6
:10145000402108437F4908600DE07F480068FF2174
:10146000E33108437C4908607A480068402108431A
:101470007849086000BF00BF0A213046FEF750FEE1
:10148000CDB22B00FFF71CFA0A061F2C455E6B84B9
:101490009DB0C9E271480068062108436F490860A1
:1014A0006F480068042108436D4908606D48006872
:1014B000062108436B490860664800680421084318
:1014C00064490860C2E06648006804210843644932
:1014D0000860644800680421084362490860B5E078
:1014E0005E480068062108435C4908605C48006863
:1014F000022108435A4908605A48006804210843F9
:10150000584908605348006804210843514908605D
:101510009CE0524800680421084350490860504844
:101520000068062108434E4908604E4800680421BF
:1015300008434C490860474800680421084345496E
:10154000086083E046480068062108434449086073
:1015500044480068062108434249086076E03F4855
:101560000068042108433D4908603D4800680621A1
:1015700008433B4908603B48006802210843394959
:1015800008603448006804210843324908605DE07F
:101590003248006806210843304908603048006836
:1015A000062108432E4908602E480068022108439E
:1015B0002C49086027480068042108432549086031
:1015C00044E027480068042108432549086025486D
:1015D000006804210843234908601E48006804216C
:1015E00008431C49086031E01C4800680621084394
:1015F0001A4908601A48006806210843184908601B
:101600001848006806210843164908601148006818
:10161000042108430F49086018E0104800680421BD
:1016200008430E4908600E480068062108430C492B
:1016300008600C480068062108430A49086005480C
:101640000068042108430349086000BF00BF00F0A0
:10165000E5FE70BD200000202400002014000020C2
:10166000180000201C0000201DFCFFFFC20200002B
:10167000F8B50546FE48854200D90546FD48006894
:10168000FF21C9008843FB490860FB480068FF212F
:10169000C9008843F8490860F8480068FF21C9007C
:1016A0008843F6490860F64800685521C900884318
:1016B000F34908607D21C9002846FEF71BFDC4B22E
:1016C0002300FFF7FDF80A06071633506683A0B61D
:1016D000D3F0E8E0E8480068012149020843E64900
:1016E0000860E6480068012149020843E3490860B0
:1016F000D9E0E0480068012149020843DD4908605B
:10170000DD480068032149020843DB490860DB48E3
:101710000068012189020843D8490860D848006858
:10172000012149020843D6490860BCE0D14800685D
:10173000012149020843CF490860CF4800680321CE
:1017400049020843CC490860CC480068012149029D
:101750000843CA490860CA48006801214902084391
:10176000C74908609FE0C348006801218902084317
:10177000C0490860C0480068032149020843BE49C7
:101780000860BE480068012149020843BB4908605F
:1017900089E0B8480068032149020843B549086058
:1017A000B5480068012189020843B3490860B3487D
:1017B0000068012149020843B0490860B048006848
:1017C000012149020843AE4908606CE0A94800685D
:1017D000032149020843A7490860A748006801217E
:1017E00089020843A4490860A4480068032149020B
:1017F0000843A2490860A248006801214902084341
:101800009F4908604FE09B48006801214902084356
:1018100098490860984800680121490208439649A0
:10182000086096480068012149020843934908600E
:1018300039E0904800680321490208438D49086057
:101840008D4800680321490208438B4908608B4892
:1018500000680321490208438849086088480068F5
:10186000012149020843864908601CE0814800685C
:101870000321490208437F4908607F48006803212B
:10188000490208437C4908607C48006801214902FC
:1018900008437A4908607A480068012149020843F0
:1018A0007749086000BF00BF7D21C9002846FEF7C8
:1018B00021FC0D4664212846FEF71CFCC6B233000D
:1018C000FEF7FEFF0A0623304B657A95B1C4EB2282
:1018D000002C19D067480068FF2181310843654911
:1018E00008606548006880210843634908606348D0
:1018F0000068FF2181310843604908606048006842
:10190000802108435E490860E2E05B48006880216E
:1019100008435949086059480068802108435749DD
:101920000860D5E0534800688021084351490860A9
:1019300051480068FF21813108434F4908604F48F2
:101940000068FF21013108434C4908604C48006899
:10195000802108434A490860BAE04648006880216F
:1019600008434449086044480068FF218131084326
:101970004149086041480068802108433F490860A8
:101980003F480068802108433D490860A0E039488D
:101990000068FF2101310843364908603648006875
:1019A000FF218131084334490860344800688021B0
:1019B0000843324908608BE02E480068FF218131DE
:1019C00008432C4908602C480068FF210131084376
:1019D0002949086029480068802108432749086090
:1019E00027480068802108432549086070E02148A5
:1019F0000068FF21813108431E4908601E480068C5
:101A0000FF21013108431C4908601C480068FF2180
:101A1000813108431949086019480068802108434A
:101A20001749086054E013480068802108431149B1
:101A3000086011480068802108430F4908600F487A
:101A40000068802108430D49086041E009480068AA
:101A5000FF21813108430749086007480068FF21DA
:101A6000813108430449086004480068FF2109E007
:101A70000F27000014000020180000201C00002088
:101A80002000002081310843FD490860FD480068BE
:101A900080210843FB4908601AE0FB480068FF21E9
:101AA00081310843F8490860F8480068FF21813116
:101AB0000843F6490860F248006880210843F0496D
:101AC0000860F048006880210843EE49086000BFC4
:101AD00000BF64212846FEF70DFB0D460A2128466B
:101AE000FEF708FBC7B23B00FEF7EAFE0A062936FE
:101AF0004F687B94ADC0D9F2002C07D1002E05D1E0
:101B0000E048006810210840002817D0DE4800682F
:101B100060210843DC490860DC4800682021084354
:101B2000DA490860D648006860210843D449086053
:101B3000D448006820210843D2490860C8E0D3484F
:101B4000006820210843D1490860CD480068202161
:101B50000843CB490860BBE0CB480068202108431C
:101B6000C9490860C948006860210843C74908603E
:101B7000C348006840210843C1490860C148006863
:101B800020210843BF490860A2E0BF480068202127
:101B90000843BD490860BD48006860210843BB494F
:101BA0000860B748006820210843B5490860B54877
:101BB000006820210843B349086089E0B248006802
:101BC00040210843B0490860B048006860210843DC
:101BD000AE490860AA48006820210843A849086067
:101BE00076E0A948006860210843A7490860A74833
:101BF000006840210843A5490860A14800682021E9
:101C000008439F4908609F480068202108439D4978
:101C100008605DE09C480068602108439A490860BC
:101C20009A48006840210843984908609448006831
:101C300060210843924908609248006820210843C7
:101C40009049086044E090480068202108438E498C
:101C500008608E480068202108438C490860884845
:101C60000068202108438649086031E08648006802
:101C70006021084384490860844800686021084363
:101C8000824908607E480068602108437C490860FA
:101C90007C480068202108437A49086018E07A48A7
:101CA000006860210843784908607848006860212E
:101CB000084376490860724800682021084370494B
:101CC000086070480068202108436E49086000BF22
:101CD00000BF0A212846FEF70DFA0D462B00FEF73D
:101CE000EFFD0A061F2C455E718AA3B6D7F0664841
:101CF00000681821084364490860644800680821A6
:101D00000843624908605E480068182108435C493E
:101D100008605C480068082108435A490860D0E020
:101D20005A48006808210843584908605448006828
:101D30000821084352490860C3E05348006808215D
:101D400008435149086051480068182108434F4929
:101D500008604B4800681021084349490860494819
:101D600000680821084347490860AAE0464800681F
:101D70000821084344490860444800681821084382
:101D8000424908603E480068082108433C49086011
:101D90003C480068082108433A49086091E03A4805
:101DA0000068102108433849086038480068182145
:101DB0000843364908603248006808210843304922
:101DC00008607EE030480068182108432E4908600A
:101DD0002E480068102108432C49086028480068F4
:101DE000082108432649086026480068082108435E
:101DF0002449086065E02448006818210843224906
:101E000008602248006810210843204908601C48E7
:101E10000068182108431A4908601A480068082118
:101E20000843184908604CE0174800680821084337
:101E300015490860154800680821084313490860DF
:101E40000F480068082108430D49086039E00E4832
:101E50000068182108430C4908600C4800681821E4
:101E600008430A49086006480068182108430449E5
:101E7000086004480068082108430249086020E01F
:101E80001C0000202000002014000020180000206A
:101E90000F480068182108430D4908600D48006884
:101EA000182108430B4908600B48006808210843C3
:101EB0000949086009480068082108430749086083
:101EC00000BF00BF00200649087000F0A7FAF8BD67
:101ED00014000020180000201C000020200000201A
:101EE00010000020F8B50746FB4800680F21C90222
:101EF0008843F9490860F94800680F21C9028843FE
:101F0000F6490860F64800680F21C9028843F44981
:101F10000860F44800680D21C9028843F14908604F
:101F2000F1480068012189038843EF490860ED48C2
:101F300000680121C9030843EA490860EA480068CB
:101F40000121C9020843E8490860E6480068012108
:101F500009030843E3490860E348006801210903D5
:101F60008843E1490860BC2F00DDBC276421384666
:101F7000FEF7D6F8C4B2002C06D0DA48006801217A
:101F800089030843D749086064213846FEF7C8F83A
:101F90008FB20A213846FEF7C3F8C5B22B00FEF710
:101FA0008FFC0A062534516E84A1BED4F224002C85
:101FB0001BD0C9480068032149030843C64908608B
:101FC000C6480068012149030843C4490860C44861
:101FD0000068032149030843C1490860C1480068FB
:101FE000012149030843BF490860E9E0BB48006894
:101FF000012149030843B9490860B9480068012133
:1020000049030843B6490860DAE0B3480068012193
:1020100049030843B0490860B048006803214903F8
:102020000843AE490860AE480068012189030843AF
:10203000AB490860AB480068012149030843A9493E
:102040000860BDE0A4480068012149030843A24993
:102050000860A24800680321490308439F490860BB
:102060009F4800680121490308439D4908609D4835
:1020700000680121490308439A490860A0E0964896
:102080000068012189030843934908609348006868
:1020900003214903084391490860914800680121E0
:1020A000490308438E4908608AE08B480068032191
:1020B000490308438849086088480068012189036A
:1020C000084386490860864800680121490308439F
:1020D0008349086083480068012149030843814916
:1020E00008606DE07C4800680321490308437A4991
:1020F00008607A480068012189030843774908602D
:10210000774800680321490308437549086075480A
:1021100000680121490308437249086050E06E4895
:1021200000680121490308436B4908606B48006857
:102130000121490308436949086069480068012191
:1021400049030843664908603AE063480068032190
:102150004903084360490860604800680321490357
:1021600008435E4908605E4800680321490308434C
:102170005B4908605B4800680121490308435949ED
:1021800008601DE0FFE75448006803214903084345
:1021900051490860514800680321490308434F49E9
:1021A00008604F4800680121490308434C49086012
:1021B0004C4800680121490308434A49086000BFB0
:1021C00000BF0A213846FDF7ABFFCEB23300FEF761
:1021D00077FB0A0623324F6C8DAAC7DDFB223E48EF
:1021E00000680321C90208433B4908603B48006876
:1021F0000321C902084339490860394800680321AE
:10220000C902084336490860364800680121C902FE
:10221000084334490860F4E0304800680121C902ED
:1022200008432E4908602E4800680121C90208436E
:102230002B490860E5E0284800680121C9020843ED
:1022400025490860254800680321C902084323493D
:1022500008602348006801210903084320490860F9
:10226000204800680121C90208431E490860C8E0EF
:10227000194800680121C902084317490860174836
:1022800000680321C9020843144908601448006823
:102290000121C9020843124908601248006801215F
:1022A000C90208430F490860ABE00B4800680121F0
:1022B0000903084308490860084800680321C90267
:1022C000084306490860064800680121C90208431E
:1022D0000349086095E00000140000201800002069
:1022E0001C00002020000020240000204748006837
:1022F0000321C90208434549086045480068012197
:102300000903084342490860424800680121C902A4
:10231000084340490860404800680121C902084359
:102320003D4908606DE0394800680321C90208434F
:1023300036490860364800680121090308433449DA
:102340000860344800680321C90208433149086025
:10235000314800680121C90208432F49086050E054
:102360002A4800680121C902084328490860284812
:1023700000680121C9020843254908602548006812
:102380000121C9020843234908603AE01F48006858
:102390000321C90208431D4908601D480068032144
:1023A000C90208431A4908601A4800680321C90293
:1023B000084318490860184800680121C902084309
:1023C000154908601DE0FFE7104800680321C902B5
:1023D00008430E4908600E4800680321C9020843FB
:1023E0000B4908600B4800680121C90208430949EC
:1023F0000860094800680121C902084306490860CD
:1024000000BF00BF00F00AF8F8BD00001400002073
:10241000180000201C0000202000002010B50F48EC
:1024200002680168012000F039FB0D48026801686C
:10243000022000F033FB0B4802680168032000F023
:102440002DFB094802680168042000F027FB0748BB
:1024500002680168052000F021FB10BD1400002077
:10246000180000201C000020200000202400002074
:1024700000B585B014216846FDF76DFE04200B49B8
:10248000C96A0143094AD16200BF00BF00BF00BF53
:102490000120C003009001200190029000200390D1
:1024A0006946034800F022FA05B000BD0010024062
:1024B0000008005000F03EFB00F0DEF8FEF7D2FD11
:1024C000FEF7A0FA00F0B4FBFEF72CF9FEF788FD4A
:1024D000FEF75EFDFEF714F9FFF7CAFFFEF7C4F939
:1024E000FEF76CFD00F032F8FEF708FEFEF736FE50
:1024F000FEF7B6FEFEF79CFC0F48FDF775FE1420B4
:102500000E49087016E0FEF729FCFEF7B7FBFEF750
:10251000DDFA0B48007800280CD0FEF789FCFDF7A7
:10252000CFFE08480088FFF7DDFC0749098888B21C
:10253000FEF7F4FEE7E7000048000020500000200E
:1025400003000020720000206C00002010B5002164
:102550001220FEF7CFF91220FEF7C0F90121092061
:10256000FEF7C8F90920FEF7B9F910BD002806D119
:10257000064A92690B029A43044B9A6105E0034AAA
:1025800092690B021A43014B9A6170470024014083
:102590000249C9690143014AD161704700240140E1
:1025A00010B5044620682D498968890089080143CF
:1025B0002A4A916000BF03218907206888420AD116
:1025C0006068114689680F22120691430143234A2D
:1025D000916000BF00BFA06800280DD0E0681F49CF
:1025E000496807221204914301431C4A516000BF0D
:1025F000A06800F035F802E0A06800F031F8E0696A
:10260000164949680322120391430143134A51605A
:1026100000BF2069114689690909090101439161D7
:1026200000BF606911468969F0229143020111439C
:102630000A4A916100BFA06911464968D2149143CA
:102640000143064A516000BF206A114649680422CE
:1026500091430143014A516000BF10BD0024014075
:10266000044949680322520291430143014A5160DF
:102670007047000000240140064800690421084317
:1026800004490861084600690121084301490861BD
:102690007047000000E000E010B5044603E07D2034
:1026A000C00000F005F82046641E0028F7D110BDD8
:1026B00010B504460C490D480068FDF71BFD444366
:1026C00001200006844200D900E020460446601E36
:1026D000074948610020886100BF05480069C003C0
:1026E000C00F0028F9D010BD40420F007400002038
:1026F00000E000E030B5C468436823430469234325
:10270000446923431A468469224301680E4B14240A
:102710004C431B590D4C234013430B4C14254D4384
:10272000635100BF02890168234614244C431B599E
:102730001F242404A34314042343034C14254D43B2
:10274000635100BF30BD0000080002400FE7FFFFEB
:10275000024A14234343D218D16070470800024054
:10276000024A14234343D218916070470800024084
:10277000024A14234343D2185160704708000240B4
:1027800010B50446E1682068FFF7F2FF6168206831
:10279000FFF7E6FFA1682068FFF7DAFF2068064927
:1027A00014224243895801221143034A142343430C
:1027B000D15000BF10BD000008000240F8B505462A
:1027C0000C463227052000F043F80646002E1FD1A4
:1027D000284600F033F8022D0BD100BF0D484069A8
:1027E0007F2109028843210208430A49486100BF4A
:1027F000052700BF0748406908210843054948618B
:1028000000BF384600F024F80646002000F016F815
:102810003046F8BD00200240034840690121C90745
:1028200008430149486170470020024010B5044642
:1028300021460220FFF7C2FF10BD0000034949698D
:10284000062291430143014A516170470020024032
:1028500070B504467D21C90010480068FDF74AFCA8
:102860006043054604E0002D01D1042070BD6D1EBB
:10287000012000040A4909690140814201D1012176
:1028800000E000210029EED1054800691C21084024
:10289000002801D00120E9E70020E7E774000020CC
:1028A0000020024070B504460D460120FFF7D0FF1E
:1028B0000646002E15D100BF0B4840690121084390
:1028C0000949486100BF25600120FFF7C1FF0646A6
:1028D00000BF05484069400840000349486100BF07
:1028E00000BF304670BD000000200240F8B507462A
:1028F0000C460025002621E00121A940206808405F
:102900000646002E19D031463846626800F055F868
:1029100031463846A26800F065F8606802280CD19C
:10292000FF2E05D831463846226900F01BF804E036
:1029300031463846226900F027F86D1C2068E840CF
:102940000028D9D16068012802D06068022804D12B
:102950003846E268216800F03DF8F8BD81627047B2
:102960008162704730B5046A0B464B434B434B437F
:102970001D01ED1A2346AB430C464C434C434C43DC
:1029800054432343036230BD30B50B0A5B430C0A4A
:1029900063430C0A63431C01E41A436AA3430C0A11
:1029A00064430D0A6C430D0A6C4354432343436252
:1029B00030BD816170478161704730B503680C4656
:1029C0004C4365006419A3430C464C4354432343D2
:1029D000036030BD10B543688B430C46544323431A
:1029E000436010BD30B5C3680C464C4365006419A4
:1029F000A3430C464C4354432343C36030BD000003
:102A00000348006840084000014908607047000022
:102A1000002400400146044880680840884201D1F3
:102A2000012070470020FCE70024004010B5044658
:102A3000FFF7E6FF00BF0120FFF7ECFF0028FAD107
:102A40006168206A084321680843216908431049E6
:102A50000968104A114008430D490860E168A06800
:102A60000843A1690843E1690843616908430849CB
:102A70004968094A114008430549486000BF0846B3
:102A80000068012108430249086000BF10BD000032
:102A90000024004053CFFFFFC2FF030630B5054BB3
:102AA00084001B59CC43A3431343024C850063515C
:102AB00030BD0000142400400449496B0143034A1F
:102AC000516300BF00BF00BF70470000001002400C
:102AD0000449896B0143034A916300BF00BF00BFF3
:102AE000704700000010024010B58A68C26200BF43
:102AF000026880239A430B691A4302604A6803689C
:102B00007024A3431343036000BFCA68036803240F
:102B10002402A3431343036000BF0A68826200BF1C
:102B20000122426100BF024AD343036100BF10BDCE
:102B30005F1E000070B502203A49096889088900C3
:102B40000143384A116000BF00BF37480068911543
:102B500008433549086000BF00BF00BF3248006825
:102B6000012189020840800A0028F6D00020602157
:102B70000122520213022C4CE4682C4D2C400546D5
:102B80001D430D4315432C43274DEC6000BF00BF90
:102B900028460068D10308432946086000BF00BFEB
:102BA00000BF21480068012149060840400E002866
:102BB000F6D000BF1C48C068491208431A49C860D3
:102BC00000BF02208968C908C9000143164A916004
:102BD00000BF00BF00BF144880683821084010289B
:102BE000F8D100201049896807221202914301435D
:102BF0000D4A916000BF00BF114689680722120389
:102C000091430143084A916000BF00BF11468968A3
:102C10000722120491430143034A916000BFFDF76C
:102C2000E1FC70BD002002400010024006F8F9FFF0
:102C300010B50120FFF74CFF012000071E49496B2A
:102C400001431D4A516300BF00BF00BF00BF00BF6A
:102C50001A4800680121C90308431849086000BFE9
:102C60001E20FFF725FD00BF1548006B40084000FF
:102C70001349086300BF1349C86913490968C909A2
:102C8000C9010143104A116000BF08200C49096BBB
:102C90000C22914301430A4A116300BF00BF104652
:102CA000006B012108431146086300BF7D20C0006E
:102CB000FFF7FEFC10BD0000001002400070004055
:102CC00080010140C003FF1F00110240010000000D
:102CD00002000000040000000800000010000000D6
:102CE0002000000040000000800000000100000003
:102CF00001000000010000000100000002000000CF
:102D00000400000008000000100000002C2D000846
:102D10000000002078000000E4090008A42D00084D
:102D20007800002000040000F40900080000000002
:102D30000000000000000000000000000000000093
:102D4000FFFF0000FFFF0000FFFF0000FFFF00008B
:102D5000FFFF000000000000000000000000000075
:102D60000000000000000000000000000000000063
:102D700000000000FFFFFFFF000000000001000056
:102D80000000000000000000000000000000000043
:102D90000000000000000000000000000100010031
:042DA0000024F40017
:04000005080000C12E
:00000001FF
