:020000040800F2
:1000000018050020D9000008E1000008E3000008FE
:1000100000000000000000000000000000000000E0
:10002000000000000000000000000000E5000008E3
:100030000000000000000000E7000008E9000008E0
:10004000EB000008EB000008EB000008EB000008E4
:10005000EB000008EB000008EB000008AD02000810
:10006000EB000008EB000008EB00000800000000B7
:10007000EB000008000000000000000085080008F8
:10008000EB000008EB000008B1080008EB000008D6
:10009000EB000008EB00000800000000EB00000887
:1000A000EB000008EB000008EB000008EB00000884
:1000B000EB000008EB000008D9060008EB00000880
:1000C0000448854600F0E0F800480047ED2C0008A1
:1000D000C046C04618050020044880470448004731
:1000E000FEE7FEE7FEE7FEE7FEE7FEE7650800083D
:1000F000C100000830B50B46014600202022012433
:1001000009E00D46D5409D4205D31D469540491B4B
:100110002546954040191546521E002DF1DC30BD94
:1001200070B500242546002801DA01244042002948
:1001300001DA01254942FFF7DDFFAC4200D0404221
:10014000002C00D0494270BDF0B51FB40646002017
:1001500082B005464024019100901BE0019922469F
:100160000F46304600F07FF8049A059B801A9941AB
:1001700010D310461946224600F065F8361A8F4112
:100180000197224601200021009F00F05CF83818FA
:100190004D4100902046641E0028DFDC019B009842
:1001A0002946324607B0F0BDF0B51FB486B0002036
:1001B0000090019002900698069980B204900798EA
:1001C000090C02040014114307900027089D0998A8
:1001D00006913E463C4603900398A9B20204000CE7
:1001E000039004982D0C154348430021224600F04B
:1001F0002AF8C719714110340E46402CECDB384602
:10020000029A00F020F8009A019B80180090594152
:1002100002980191103002904028CCDB00980BB07E
:10022000F0BDD2B201E00270401C491EFBD2704703
:100230000022F6E710B513460A4604461946FFF7B2
:10024000F0FF204610BD10B5202A04DB0146203AFD
:100250009140002010BD914020239C1A0346E340AA
:100260001943904010BD10B5202A04DB0846203AFF
:10027000D040002110BD0B46D340D0402024A21A0C
:1002800091400843194610BD064C0125064E05E075
:10029000E36807CC2B430C3C98471034B442F7D3A7
:1002A000FFF712FFE83A0008083B000810B50948BC
:1002B00002F05CFE002802D0064802F04DFE054820
:1002C000401D02F053FE002803D00248401D02F0FA
:1002D00043FE10BD0500000610B500F0A5F9E020B2
:1002E00000F070F900F0E0F9352000F06BF900F053
:1002F000DBF9172000F066F900F0D6F900F0B4F948
:10030000022002F0FBFD00F08FF9E02000F05AF926
:1003100000F0CAF9782000F055F900F0C5F9662020
:1003200000F050F900F0C0F900F09EF90C2002F046
:10033000E5FD00F079F9E12000F044F900F0B4F9AE
:1003400000F016F900026949086000F0D9F800F0E1
:100350000FF96649096808436449086000F0D0F85D
:1003600000F006F900F0CCF800F002F90002604954
:10037000086000F0C5F800F0FBF85D490968084323
:100380005B49086000F0D8F800F06EF95748006843
:10039000AF214843000C5549086055480068642166
:1003A0004843000C5249086052480078B42804DAE7
:1003B00050480078401C4F4908704E4800783C284F
:1003C0003FDD4C480078782812DA48480068012858
:1003D00005D946480068401E4449086002E00020F4
:1003E0004249086042480068801C4149086028E092
:1003F00040480078B42812DA3C480068022805D941
:100400003A480068801E3949086002E000203749F8
:10041000086037480068001D3549086011E033481E
:100420000068032805D931480068C01E2F490860BC
:1004300002E000202D4908602D48006808302C4952
:1004400008602B480068632802D9632028490860A7
:10045000264800682D2808D9244800682D382349EB
:10046000086000202449087008E0204800682D2119
:10047000081A1E49086001201F4908701F480078AB
:10048000002831D019490968CA0088180521FFF7EA
:1004900031FE1649086018480078002819D008462F
:1004A0000068202809D8084600682021081A0F494A
:1004B000086000201049087016E00C4800682038D9
:1004C0000A4908600846006863280DD9632008605F
:1004D0000AE00648006820300449086008460068C1
:1004E000C72801D9C720086010BD000064000020A3
:1004F0006C0000205C000020680000205D000020EF
:1005000010B502210B4802F01EFE00F019F901217E
:10051000084802F018FE052002F0FCFC0221054804
:1005200002F044FE052002F0F5FC0221014802F031
:100530000AFE10BD0014005010B502210B4802F055
:1005400002FE00F0FDF80121084802F02FFE052010
:1005500002F0E0FC0221054802F028FE052002F02E
:10056000D9FC0221014802F0EEFD10BD001400503C
:1005700070B5002400F0D2F800251DE002211048DB
:1005800002F0E1FD0A2002F0C5FC02210C4802F055
:100590000DFE6004040C01200949096901408142F3
:1005A00000D100E00021002901D0601C84B20A20A3
:1005B00002F0B0FC681CC5B2082DDFDB204670BD20
:1005C0000014005070B5044600F0BAF80221154836
:1005D00002F0B9FD002522E080202040C011002853
:1005E00004D001210F4802F0E1FD03E001210D4894
:1005F00002F0A9FD6006040E052002F08BFC02212A
:10060000084802F0D3FD052002F084FC02210548D1
:1006100002F099FD052002F07DFC681CC5B2082D92
:10062000DADB70BD0014005010B500F089F801212C
:100630000C4802F0BBFD02210A4802F0B7FD0A2077
:1006400002F068FC0121074802F07DFD0A2002F05B
:1006500061FC0221034802F076FD0A2002F05AFCF8
:1006600010BD00000014005010B500F069F8022120
:100670000C4802F068FD01210A4802F064FD0A20DE
:1006800002F048FC0221074802F090FD0A2002F027
:1006900041FC0121034802F089FD0A2002F03AFCE6
:1006A00010BD00000014005010B500F037F8012113
:1006B000084802F07BFD052002F02CFC02210548D1
:1006C00002F074FD052002F025FC0221014802F031
:1006D0003AFD10BD0014005002200F498968014006
:1006E000814201D1012100E00021002912D0022025
:1006F000094909680140814201D1012100E000213E
:10070000002907D00220044949680143024A516088
:1007100000BF00BF704700000090004000B585B0EA
:1007200014216846FFF784FD01200090002001900D
:100730006946024802F0C7FC05B000BD0014005035
:1007400000B585B014216846FFF772FD01200090C6
:100750000190002003906946024802F0B4FC05B005
:1007600000BD000000140050FEB5394880683821F3
:100770000840102812D004DC002848D0082845D1B1
:1007800004E0182807D0202840D101E0314D4DE089
:100790000125ED034AE07D252D0247E02C48C06885
:1007A000C607F60F002E01D02A4C04E0002E01D11E
:1007B000294C00E000242648C068F8210840C708FA
:1007C0002348C068072109020840000A0290002F50
:1007D00000D120270298002801D10820029021464C
:1007E000794308460299FFF785FC04461848C0681B
:1007F000032149040840400C0190012201988240E5
:1008000011462046FFF776FC05460FE000BF104872
:1008100000680321C9020840C10A012088400090F5
:100820000D480099FFF766FC054600BF00BF084869
:100830008068072109020840000A800007490C5817
:1008400021462846FFF756FC05490860FEBD00001A
:100850000010024000127A000024F400A83A0008B8
:100860009000002003480449886004480449086057
:10087000704700000000000800ED00E00024F400D4
:100880009000002010B50121084802F03EFD00282C
:100890000BD00121054802F02FFD002805D00121D1
:1008A000024802F021FD02F045F910BD00040040AD
:1008B00010B50121094802F028FD00280CD00121C3
:1008C000064802F019FD002806D00121034802F075
:1008D0000BFD01200249087010BD0000001000400F
:1008E00004000020F8B582B28BB2040C0D0C104647
:1008F0005843002126465E43370C3604801979415F
:1009000016466E43370C36048019794126466E43ED
:100910008919F8BD30B47446641E2578641CAB4256
:1009200004D3635D5B00E31830BC18471D46F8E74D
:10093000002805DBC206D20E01219140014A116058
:100940007047000000E100E010B5002819DB1A4AEA
:1009500003231B02D21883089B00D2588307DC0EA6
:10096000FF23A3409A438B071B0E8407E40EA3408A
:100970001A43114B032424021B198408A4001A51A2
:1009800018E00E4A03071B0F083B9B089B00D25838
:100990008307DC0EFF23A3409A438B071B0E8407BB
:1009A000E40EA3401A43054B0407240F083CA40897
:1009B000A4001A5110BD000000E100E01CED00E0B1
:1009C00002E008C8121F08C1002AFAD17047704718
:1009D000002001E001C1121F002AFBD17047000076
:1009E00000B589B024216846FFF722FC01200005EC
:1009F0002B49896B01432A4A916300BF00BF00BFA6
:100A000000BF0020009007900120C0020690002047
:100A1000029007200490059000200890684602F09C
:100A2000F1F9012000041F49896801431D4A9160C2
:100A300000BF0F2002F06EFA04211B48002906D1E6
:100A4000184A926903029A43164B9A6105E0154AC7
:100A5000926903021A43134B9A6100BF00BF114809
:100A600040680121890308430E49486000BF012006
:100A70008968814301430B4A916000BF00BF114662
:100A8000086000BF032002F045FA00BF0120C00744
:100A90000449086000BF642002F03CFA09B000BDC0
:100AA00000100240002401400820000010B5012180
:100AB000C9030520000702F042FB04212A4802F086
:100AC0003EFB082000F018FB28490860042000F0D5
:100AD00013FB274908600121C9030520000702F024
:100AE00061FB4B20C00002F015FA022000F004FB6D
:100AF0002049086004211C4802F054FB642002F0E5
:100B000009FA022000F0F8FA1B4908601948006849
:100B10000968884205D91748006817490968401ACA
:100B200004E01548006813490968401A1349086031
:100B30000121C9030520000702F001FB04210A4836
:100B400002F0FDFA0E4800780A280BDA0C4800780B
:100B5000401C0B4908700B48006808490968401898
:100B60000849086010BD0000000400501C0000206F
:100B70002000002024000020280000202C0000205D
:100B8000300000203400002010B5F848006800282C
:100B900000D010BDF6480078F6490978884203D0A5
:100BA000F4480078F2490870F24800780300FFF733
:100BB000B1FE0E08234D91FEFDFC22FB22FA2222FB
:100BC000F9220A2002F09AF900F0E2FC0121C9039F
:100BD000E94802F0E9FA6420E44908600121C90308
:100BE000E54802F0AEFA00F017FD0120E149087077
:100BF0000020E249087050E2E0480078002812D155
:100C0000012002F09FF8F12002F0BEFEDC480068EF
:100C1000552109018843DA49086001F01FFE0120CF
:100C2000D649087011E00220D2490870D448006803
:100C3000552109018843D249086001F00FFED148CF
:100C4000CA4908600020CD49087026E26420C749DF
:100C50000860CA480078002818D1FF209130CA499E
:100C6000086008460068642833D908460068E12116
:100C7000890088422DD2C4480068C4490860022017
:100C800002F060F80120BD49087022E0BB480078FE
:100C900001281ED1BD480068FF30F530BA49086010
:100CA00008460068B9490968884212D9B648006800
:100CB000B6490968401A96280BD3042002F042F87E
:100CC0000020AE490870AF48A84908600320A94930
:100CD0000870E2E1AD480068FF30F530AA490860CD
:100CE000A6480078002849D108460068A749096845
:100CF00088423AD9A4480068A4490968401A96284D
:100D00002AD3A1480068A1490968401AA04908608F
:100D1000A048A1490860002002F014F89F4800781C
:100D200080009F49097808439B49486098480068BB
:100D3000886000F0BDFA0121C9038F4802F001FA72
:100D4000012149038C4802F0FCF901208B4908700D
:100D500064208649086038E000F01AFC0121C903CC
:100D6000854802F021FA00BFFEE700F011FC0121E6
:100D7000C903814802F018FA00BFFEE77F480078F7
:100D8000012815D1C1037C4802F00EFA0121490364
:100D9000794802F009FA0220784908706420734902
:100DA000086012E048E10EE1BFE097E069E00DE085
:100DB00072480078022808D1002070490870042089
:100DC0006C49087001207749087066E101208002B3
:100DD0000521090709690140814201D1012100E093
:100DE000002100293BD06F480078002802D0012064
:100DF0006249087061480078002813D101205F49DA
:100E000008700A2002F07AF8012002F0BDFDFF20F0
:100E1000913065490880012001F094FF59485349F9
:100E200008602DE055480078012829D15D480078F8
:100E3000002803D154480068544908600A215B48DF
:100E40000068FFF757F95A49086000204B490870BD
:100E5000032001F077FF05204649087010E00A20C2
:100E600002F04CF8012002F08FFD00F091FB02200F
:100E700001F068FF64203D4908600D203D4908707D
:100E80000BE164203949086000204A49087002F0EB
:100E9000E3FC4948006896280BD3062035490870C2
:100EA000032002F071FD012001F04CFF01F0D6FC9F
:100EB0006FE6424800680E280CD3002040490870B5
:100EC00008202C490870042002F05EFD012001F08A
:100ED00039FF5EE600203A490870DEE064202349CD
:100EE000086002F0B9FC3448006864280BD2052081
:100EF00020490870F12002F047FD032001F022FF95
:100F000001F0ACFC45E62D4800680E280CD300200B
:100F10002B4908700A2017490870032002F034FD9D
:100F2000012001F00FFF34E6B7E064200F490860AC
:100F300002F092FC214800680E2809D205200D49D4
:100F40000870F12002F020FD032001F0FBFE20E6F6
:100F500019480068962835D90A20064908700320E8
:100F600002F012FD012001F0EDFE12E6000000206B
:100F70003900002038000020000800503A0000200E
:100F800078000020701700001C0000204C0000209A
:100F9000500000205A5A5A5A94000020580000204D
:100FA000590000203E0000203C00002034000020BA
:100FB000540000208E00002040000020440000204B
:100FC0004800002069E064203549086002F044FCD4
:100FD00034480078401C33490870084600780828D7
:100FE00003D1042002F0D0FC09E02E4800780D283F
:100FF00005DB00202B490870032002F0C5FC2A48BD
:101000000068642809D2082028490870042002F0EA
:10101000BBFC002023490870BBE5254800680E286A
:1010200009D2062021490870032002F0ADFC0020FF
:101030001C490870ADE530E01E48007800280FD14B
:101040001D480078002827D000201B490870194847
:101050000078401C174908706420114908601BE0A3
:101060001448007801280FD113480078002813D0C5
:101070000020114908700F480078401C0D49087085
:1010800064200749086007E000200B4908700949FF
:10109000087001200549087000BF00BF00BF78E557
:1010A000000000203B00002040000020380000200D
:1010B000440000203A000020160000200B48006881
:1010C00019218901884203D901200949087002E0E9
:1010D00002200749087007480078054909788842C6
:1010E00003D00348007803490870704720000020AF
:1010F0005A0000205B000020F1B588B00020069067
:101100000590049006A800F055F804A9089800F08E
:1011100029F8069800281BD00F490498FFF7E2FB36
:101120000E4A1488002506460F4622462B46FFF736
:101130003BF8019100900A490698FFF7D3FB02465D
:101140000B460391029001990098FEF7FDFF059070
:10115000059809B0F0BD0000E40C0000C003FF1FBB
:10116000FF0F000070B505460C4600BF01F036FECB
:101170000028FBD1284601F029FE042001F018FECA
:1011800000BF04200A49086000BF00BF042001F02E
:101190002DFE0028FAD0042001F00AFE00BF04480A
:1011A0004030006880B22060284601F007FE70BD24
:1011B0000024014010B5044600BF01F00FFE0028D6
:1011C000FBD10120400301F001FE042001F0F0FDFD
:1011D00000BF04200B49086000BF00BF042001F0DD
:1011E00005FE0028FAD0042001F0E2FD00BF05480A
:1011F0004030006880B220600120400301F0DEFD35
:1012000010BD00000024014010B51C2001F0BEFEFE
:10121000002407E0A0001D4940180068A1001C4AF6
:101220005050641C202CF5D3194800681949884295
:1012300013D11748406804210840800816490870F7
:1012400013480079C007C00F14490870104880681F
:10125000134908600420134908700D48007D1249A5
:10126000087008460078002801D00120087008485E
:10127000007C0E49087008460078022805D0084610
:1012800000780A2801D00520087010BD00A00008D1
:10129000940000205A5A5A5A580000205900002041
:1012A00050000020380000205D00002017000020C2
:1012B00070B51C2001F06AFE00BF1748174988600E
:1012C0001748886000BF00BF08464069C00F00286B
:1012D00021D1502001F08EFE054600BF002DFDD12A
:1012E00000240CE0A2000F4B9958A2000E4BD0181E
:1012F00001F0BCFE054600BF002DFDD1641C202C72
:10130000F0D300BF054840690121C90708430349DC
:10131000486100BF00BF70BD851A7AE50020024019
:1013200091836E7C9400002000A0000800B585B079
:1013300014216846FEF77CFF27204B49C96A014308
:10134000494AD16200BF00BF00BF00BF63208001D7
:1013500000900220019003200490694605200007B8
:1013600001F0B1FE414800906946414801F0ABFEF2
:1013700007204002009069463E4801F0A4FE01208B
:1013800040030090012001900020029003906946E4
:10139000384801F098FE0120C003009069463548A6
:1013A00001F091FE0120800300906946314801F070
:1013B0008AFE012189032F4801F0BDFE0120C003F0
:1013C000009069460520000701F07DFE0420009092
:1013D0006946274801F077FE022000906946052003
:1013E000000701F070FE02210520000701F0A3FEB6
:1013F00020200090002001900120029069460520E5
:10140000000701F060FE01208002009000200190A2
:101410000120029069460520000701F054FE0320D8
:10142000009001200190002002900390694612482C
:1014300001F049FE0320019010200090694605202C
:10144000000701F040FE08200090694605200007D3
:1014500001F039FE0420009069460520000701F0E4
:1014600032FE05B000BD000000100240F8FF000091
:1014700000040050000800500014005010B5012076
:10148000000701F025FF00BF124840680121084312
:101490001049486000BF642001F03CFD00BF0E48C9
:1014A0000068FF21013108430B49086000BF48155F
:1014B000084909680322120291430143054A116059
:1014C00000BF00BF044800689115884302490860C6
:1014D00000BF10BD401002400070004000B589B050
:1014E00024216846FEF7A4FEFFF7C8FFFF20013065
:1014F00001F0EEFE0120800624494968024691432E
:101500000143224A516000BF00BF10460068911598
:1015100008431146086000BF00BF0846006849152F
:1015200008431146086000BF00BF0846006809155F
:1015300008431146086000BF00BF08460068C91490
:1015400008431146086000BF00200090042001906D
:10155000000502900F2080040390881404900F204F
:10156000C00605900120069080200890684601F092
:101570005DFE01204006054949680246914301434A
:10158000024A516000BF09B000BD000000240040C5
:1015900010B51C4800680121C903084319490860B7
:1015A0000846006808210843164908601648006884
:1015B000012189020843144908601248006810217B
:1015C000084310490860114802680168012001F0D1
:1015D00065FE0F4802680168022001F05FFE0D48B9
:1015E00002680168032001F059FE0748026801689B
:1015F000042001F053FE034802680168052001F051
:101600004DFE10BD840000208000002074000020EA
:10161000780000207C00002010B527480068FF21DA
:10162000C90088432449086024480068FF21C90094
:1016300088432249086022480068FF21C900884386
:101640001F4908601F4800685721C90088431D4989
:1016500008601A4800680121890208431749086098
:1016600008460068FF210131084314490860084614
:1016700000684021084311490860084600681021AD
:1016800008430E4908600C4802680168012001F017
:1016900005FE0A4802680168022001F0FFFD0848C3
:1016A00002680168032001F0F9FD0648026801683C
:1016B000042001F0F3FD10BD74000020780000202C
:1016C0007C0000208000002070B50646CB480068F2
:1016D00002210843C9490860C948006801218902FC
:1016E0000843C7490860632E00DD6326C5480068CB
:1016F00006218843C3490860C3480068062188431F
:10170000C1490860C148006806218843BF49086094
:10171000BA48006844218843B8490860B84800685E
:10172000BB490840B64908600A213046FEF7F8FC7C
:10173000C4B22300FFF7EEF80A060714212E3C443A
:101740004C5967756DE0AD48006840210843AB49CE
:101750000860AB48006820210843A949086060E0A0
:10176000A7480068AB490843A5490860A34800683A
:1017700040210843A149086053E0A1480068E221E4
:1017800008439F4908609D480068402108439B49E1
:10179000086046E09A480068FF2161310843984993
:1017A000086096480068402108439449086038E082
:1017B00093480068FF21E33108439149086030E015
:1017C0008F4800689249C94308438D49086028E062
:1017D0008B480068A0210843894908608748006851
:1017E00040210843854908601BE085480068884916
:1017F000C943084382490860804800684021084383
:101800007E4908600DE07E480068FF21E33108430F
:101810007B4908607948006840210843774908609F
:1018200000BF00BF0A213046FEF77AFCCDB22B0084
:10183000FFF770F80A061F2C455E6B849DB0C9E265
:1018400070480068062108436E4908606E480068C9
:10185000042108436C4908606C480068062108436D
:101860006A490860654800680421084363490860C4
:10187000C2E0654800680421084363490860634882
:1018800000680421084361490860B5E05D480068CC
:10189000062108435B4908605B4800680221084351
:1018A00059490860594800680421084357490860AD
:1018B0005248006804210843504908609CE05148A0
:1018C0000068042108434F4908604F48006806211A
:1018D00008434D4908604D480068042108434B49BE
:1018E000086046480068042108434449086083E0D2
:1018F000454800680621084343490860434800689A
:10190000062108434149086076E03E48006804210A
:1019100008433C4908603C480068062108433A49AE
:1019200008603A4800680221084338490860334893
:10193000006804210843314908605DE031480068CF
:10194000062108432F4908602F48006806210843F4
:101950002D4908602D480068022108432B49086082
:1019600026480068042108432449086044E02648CA
:1019700000680421084324490860244800680421C1
:101980000843224908601D480068042108431B4998
:10199000086031E01B4800680621084319490860C7
:1019A000194800680621084317490860174800686D
:1019B00006210843154908601048006804210843BF
:1019C0000E49086018E00F480068042108430D49DB
:1019D00008600D480068062108430B4908600B4861
:1019E000006806210843094908600448006804218A
:1019F00008430249086000BF00BF70BD800000209E
:101A00008400002074000020780000207C0000206A
:101A10001DFCFFFFC2020000F8B50546FA48007839
:101A2000002800D0F94DFA48854200D90546F9480A
:101A30000068FF21C9008843F6490860F64800683D
:101A4000FF21C9008843F4490860F4480068FF2179
:101A5000C9008843F1490860F14800685521C90070
:101A60008843EF490860EF48007800280BD0ED4824
:101A70000078012807D0EB480078022803D0E94815
:101A80000078032807D1E44800685521090108437C
:101A9000E1490860F8BD7D21C9002846FEF72AFB10
:101AA000C4B22300FEF736FF0A06071633506683DA
:101AB000A0B6D3F0E8E0D848006801214902084305
:101AC000D5490860D5480068012149020843D34937
:101AD0000860D9E0CF480068012149020843CD4998
:101AE0000860CD480068032149020843CA490860DC
:101AF000CA480068012189020843C8490860C848EB
:101B00000068012149020843C5490860BCE0C1489A
:101B10000068012149020843BE490860BE480068C8
:101B2000032149020843BC490860BC480068012100
:101B300049020843B9490860B948006801214902CF
:101B40000843B74908609FE0B24800680121890254
:101B50000843B0490860B0480068032149020843BF
:101B6000AD490860AD480068012149020843AB490E
:101B7000086089E0A7480068032149020843A54995
:101B80000860A5480068012189020843A24908604D
:101B9000A2480068012149020843A0490860A04802
:101BA00000680121490208439D4908606CE099489A
:101BB0000068032149020843964908609648006876
:101BC0000121890208439449086094480068032170
:101BD000490208439149086091480068012149027F
:101BE00008438F4908604FE08A4800680121490294
:101BF0000843884908608848006801214902084371
:101C000085490860854800680121490208438349E5
:101C1000086039E07F4800680321490208437D4994
:101C200008607D4800680321490208437A4908603A
:101C30007A480068032149020843784908607848D7
:101C40000068012149020843754908601CE0714899
:101C500000680321490208436E4908606E48006825
:101C60000321490208436C4908606C48006801215F
:101C7000490208436949086069480068012149022E
:101C800008436749086000BF00BF7D21C90028469E
:101C9000FEF730FA0D4664212846FEF72BFAC6B24D
:101CA0003300FEF737FE0A0623304B657A95C1D420
:101CB000F122002C19D057480068FF2181310843D8
:101CC000544908605448006880210843524908601C
:101CD00052480068FF21813108435049086050484C
:101CE0000068802108434E490860E8E04A480068DF
:101CF000802108434849086048480068802108431B
:101D000046490860DBE043480068802108434149B8
:101D1000086041480068FF21813108433E4908605E
:101D20003E480068FF21013108433C4908603C48B7
:101D30000068802108433A490860C0E035480068DF
:101D4000802108433349086033480068FF2181310E
:101D500008433149086031480068802108432F4911
:101D600008602F480068802108432D490860A6E0DC
:101D700028480068FF2101310843264908602648A9
:101D80000068FF2181310843234908602348006827
:101D9000802108432149086091E01E480068FF2126
:101DA000813108431B4908601B480068FF2101314D
:101DB00008431949086019480068802108431749F9
:101DC000086017480068802108431549086076E0DC
:101DD00010480068FF21813108430E4908600E4811
:101DE0000068FF21013108430B4908600B48006877
:101DF000FF218131084309490860094800688021B2
:101E00000843074908605AE016000020B822000085
:101E10000F27000074000020780000207C000020C4
:101E20008000002038000020FB4800688021084323
:101E3000F9490860F948006880210843F7490860BB
:101E4000F748006880210843F549086037E0F24808
:101E50000068FF2181310843EF490860EF480068BE
:101E6000FF2181310843ED490860ED480068FF21FA
:101E700081310843EA490860EA4800688021084344
:101E8000E84908601BE0FFE7E3480068FF21813173
:101E90000843E1490860E1480068FF2181310843B7
:101EA000DE490860DE48006880210843DC4908609C
:101EB000DC48006880210843DA49086000BF00BFA1
:101EC00064212846FEF716F90D460A212846FEF73A
:101ED00011F9C7B23B00FEF71DFD0A0629364F680F
:101EE0007B94ADC0D9F2002C07D1002E05D1CD488E
:101EF000006810210840002817D0C74800686021FA
:101F00000843C5490860C548006820210843C34903
:101F10000860C348006860210843C1490860C1489F
:101F2000006820210843BF490860C8E0BB4800683A
:101F300020210843B9490860B948006820210843B6
:101F4000B7490860BBE0B448006820210843B249A3
:101F50000860B248006860210843B0490860B04892
:101F6000006840210843AE490860AE48006820215F
:101F70000843AC490860A2E0A74800682021084354
:101F8000A5490860A548006860210843A349086086
:101F9000A348006820210843A1490860A1480068BF
:101FA000202108439F49086089E09B480068402140
:101FB0000843994908609948006860210843974997
:101FC000086097480068202108439549086076E03A
:101FD00091480068602108438F4908608F48006875
:101FE000402108438D4908608D480068202108433E
:101FF0008B4908608B4800682021084389490860A4
:102000005DE0854800686021084383490860834893
:1020100000684021084381490860814800686021C8
:1020200008437F4908607F480068202108437D49B4
:10203000086044E078480068202108437649086039
:102040007648006820210843744908607448006895
:10205000202108437249086031E06F480068602120
:1020600008436D4908606D480068602108436B496A
:1020700008606B4800686021084369490860694846
:102080000068202108436749086018E0624800683A
:102090006021084360490860604800686021084387
:1020A0005E4908605E480068202108435C4908607A
:1020B0005C480068202108435A49086000BF00BFFF
:1020C0000A212846FEF716F80D462B00FEF722FCE3
:1020D0000A061F2C455E718AACBFD8F14E480068D5
:1020E000182108434C4908604C48006808210843FF
:1020F0004A4908604A48006818210843484908606E
:10210000484800680821084346490860D1E0434830
:1021100000680821084341490860414800680821D7
:1021200008433F490860C4E03B4800680821084371
:102130003949086039480068182108433749086060
:102140003748006810210843354908603548006861
:102150000821084333490860ABE02F480068082194
:1021600008432D4908602D480068182108432B4971
:1021700008602B480068082108432949086029485D
:102180000068082108432749086092E02248006857
:10219000102108432049086020480068182108439E
:1021A0001E4908601E480068082108431C49086051
:1021B0007FE019480068182108431749086017484C
:1021C0000068102108431549086015480068082177
:1021D000084313490860134800680821084311495F
:1021E000086066E00C480068182108430A49086046
:1021F0000A48006810210843084908600848006838
:102200001821084306490860064800680821084369
:10221000044908604DE000007400002078000020B0
:102220007C00002080000020254800680821084329
:1022300023490860234800680821084321490860B1
:1022400021480068082108431F49086031E01C4804
:102250000068182108431A4908601A4800681821C4
:1022600008431849086018480068182108431649AF
:10227000086016480068082108431449086018E0FF
:102280000F480068182108430D4908600D48006890
:10229000182108430B4908600B48006808210843CF
:1022A000094908600948006808210843074908608F
:1022B00000BF00BF00200649087000BFFFF7EAFB1F
:1022C00074000020780000207C00002080000020A6
:1022D00070000020F8B50746FE4800680121C903D8
:1022E0000843FC490860FC4800680121C902084312
:1022F000F9490860F948007800280ED0F5480068D0
:10230000012109038843F3490860F348006801216B
:1023100009030843F04908600DE0EE480068012118
:1023200009030843EB490860EB48006801210903F1
:102330008843E9490860EA480078002803D0632F01
:1023400004DD632702E0BC2F00DDBC27E548006800
:102350000F21C9028843E3490860E34800680F2160
:10236000C9028843E0490860E04800680F21C902BB
:102370008843DE490860D74800680D21C9028843B8
:10238000D4490860D4480068012189038843D249B0
:102390000860D3480078002806D00846006801216C
:1023A00089030843CC49086064213846FDF7B8FE2C
:1023B000C4B2002C06D0C748006801218903084335
:1023C000C449086064213846FDF7AAFE8FB20A218D
:1023D0003846FDF7A5FEC5B22B00FEF79BFA0A06AC
:1023E0002534516E84A1BED4F224002C1BD0BD48EC
:1023F0000068032149030843BA490860BA480068E5
:10240000012149030843B8490860B848006803211E
:1024100049030843B5490860AE48006801214903F3
:102420000843AC490860E9E0AF480068012149036E
:102430000843AD490860AD480068012149030843DD
:10244000AA490860DAE0A748006801214903084367
:10245000A4490860A4480068032149030843A2492D
:102460000860A24800680121890308439F49086069
:102470009848006801214903084396490860BDE077
:102480009848006801214903084396490860964826
:102490000068032149030843934908609348006892
:1024A000012149030843914908608A4800680121D5
:1024B0004903084387490860A0E08A480068012171
:1024C0008903084387490860874800680321490356
:1024D000084385490860854800680121490308438D
:1024E000824908608AE07F48006803214903084365
:1024F0007C4908607C4800680121890308437A49C7
:1025000008607A4800680121490308437749086058
:10251000704800680121490308436E4908606DE076
:10252000704800680321490308436E4908606E48FB
:1025300000680121890308436B4908606B48006803
:102540000321490308436949086062480068012182
:10255000490308435F49086050E062480068012170
:10256000490308435F4908605F4800680121490347
:1025700008435D4908605D4800680121490308433C
:102580005A4908603AE05748006803214903084364
:1025900054490860544800680321490308435249DC
:1025A0000860524800680321490308434F49086006
:1025B00048480068012149030843464908601DE076
:1025C000FFE748480068032149030843454908607C
:1025D00045480068032149030843434908604348CC
:1025E00000680121490308434049086039480068F0
:1025F0000121490308433749086000BF00BF0A2191
:102600003846FDF78DFDCEB23300FEF783F90A069A
:1026100023324F7B91AECBE1FD223248006803218B
:10262000C90208432F4908602F4800680321C902E6
:1026300008432D4908602D4800680321C90208435A
:102640002A490860234800680121C902084321493A
:102650000860F9E0244800680121C90208432249C2
:102660000860224800680121C90208431F49086028
:10267000EAE01C4800680121C902084319490860C2
:10268000194800680321C902084317490860174820
:102690000068012109030843144908600D480068D7
:1026A0000121C90208430B490860CDE00D480068CC
:1026B0000121C90208430B4908600B480068032147
:1026C000C902084308490860084800680121C90296
:1026D00008430DE080000020840000205D00002001
:1026E0006800002074000020780000207C0000209A
:1026F00056490860564800680121C90208435449F8
:102700000860A1E0534800680121090308435149CA
:102710000860514800680321C90208434E49086017
:102720004A4800680121C9020843484908608BE013
:10273000484800680321C9020843464908604648E2
:102740000068012109030843434908603F480068C5
:102750000121C90208433D4908603D480068012144
:10276000C90208433A4908606EE03A48006803210C
:10277000C902084337490860374800680121090346
:10278000084335490860314800680321C9020843FD
:102790002E4908602E4800680121C90208432C49CF
:1027A000086051E02B4800680121C902084329490B
:1027B0000860294800680121C902084326490860C9
:1027C000224800680121C9020843204908603BE013
:1027D000204800680321C90208431E4908601E48BA
:1027E00000680321C90208431B49086017480068B4
:1027F0000321C902084315490860154800680121F2
:10280000C9020843124900E001E008601CE01148D9
:1028100000680321C90208430E4908600E48006899
:102820000321C90208430C490860084800680121D7
:10283000C902084305490860054800680121C9022A
:1028400008430349086000BF00BFF8BD7C000020BA
:1028500080000020740000207800002010B5A048FF
:102860000068042188439E4908609E480078022839
:1028700005D1084600680421084399490860984832
:1028800000680121C903884395490860084600682B
:102890000821884392490860934800680121890211
:1028A0008843914908608E480068102188438C490C
:1028B00008608D480068102188438B4908600846ED
:1028C0000068FF2101310843874908608448006897
:1028D0000121490308438249086084480078801E2A
:1028E0000300FEF717F80C07082A4C76CD77CD7851
:1028F000CDCDB9CD00BF7E48007800280ED17848F4
:1029000000680121C90308437549086079480068D7
:10291000794908600220764908700DE07248006825
:1029200001218902084370490860744800687249AF
:10293000086000206E490870A3E0642170480068B8
:10294000FDF7D8FB6C490860654800680121C903A0
:102950000843634908600846006808210843604945
:102960000860614800680121890208435E490860E7
:102970005B480068102108435949086081E06148BC
:102980000068002824D160480068002820D1012078
:102990005E490870524800680121C9030843504944
:1029A000086008460068082108434D4908604E4801
:1029B00000680121890208434B49086048480068C3
:1029C000102108434649086000204B49086058E040
:1029D00000BF00BF00BF46480078002811D1404822
:1029E00000680121C90308433D49086008460068A2
:1029F000082108433A490860424800683E49086097
:102A00001EE03B48007802281AD1374800680121AF
:102A1000890208433449086031480068102108439E
:102A20002F49086038480068002805D02E48006803
:102A3000102108432C490860334800682E4908607B
:102A40002B480078002803D102202949087002E0B1
:102A500000202749087014E02D480078002803D191
:102A60002C48254908600AE029480078012803D14C
:102A700029482149086002E028481F49086000E011
:102A800000BF00BF2649098888B2FFF723FC25490B
:102A9000098888B2FEF718FE17480068FEF7BCFFE9
:102AA000214802680168012000F0F8FB1F48026815
:102AB0000168022000F0F2FB1D4802680168032053
:102AC00000F0ECFB084802680168042000F0E6FB17
:102AD000034802680168052000F0E0FB10BD00001B
:102AE000840000205A0000208000002038000020D0
:102AF000880000201C000020600000202C00002026
:102B00000000002040000020440000207000002051
:102B10003A00002057040000AE080000050D000038
:102B2000640000206C000020740000207800002069
:102B30007C00002010B51C480078052819D11B48DE
:102B40000068642803D31A4800780A2811DA194863
:102B5000007800280DD118480068B42809D2174819
:102B60000078002805D101214903154800F0E5FA55
:102B700019E014480078401CC0B2124908700A28B5
:102B800006DB00200870012149030D4800F008FB16
:102B90000C4800780C490978884204D10121490386
:102BA000074800F0CAFA10BD38000020400000209D
:102BB00010000020160000200C0000200A00002059
:102BC00000080050180000201700002010B5184819
:102BD000007800282AD01648007801280ED1154820
:102BE0000088401C80B2134908801E2806DB0020A4
:102BF00008800121C903104800F0FEFA0C48007853
:102C0000042813D10B480088401C80B20949088071
:102C100032280BDB002008800121C903064800F0A0
:102C2000EBFA01214903044800F0E6FA10BD000068
:102C30008C0000208A0000200008005010B5012000
:102C4000000700F039FB00BF25480068FF21013173
:102C500008432349086000BF00BF224840680121A3
:102C600008432049486000BF00BF00BF1D484068BE
:102C70000221084040080028F7D0C804194940390B
:102C8000C96B0322120591430143164A403AD163AE
:102C900000BF800200F010FB072040021249C96803
:102CA000024691430143104AD16000BF00BF104665
:102CB000C0680321490488431146C86000BF00BFB3
:102CC00007480068891588430549086000BF00214E
:102CD0001E20FDF739FE1E20FDF72AFE10BD000064
:102CE00000700040401002400090004000F040FBA7
:102CF00000F0F4F87D20C00000F000F9FEF716FBAC
:102D0000FEF7ECFB00F046FB00F076FBFEF77CFAEA
:102D100000F01CFEFDF764FEFFF790FF042007495A
:102D20000870FEF735FC0120C0030549886100BF2B
:102D300003E0FDF729FF00F091FBFAE7080000200F
:102D40000008005010B504460020164908801648B7
:102D500004700078022804D180031449886100BF00
:102D60001FE011480078012804D1C1030F4800F08A
:102D7000ECF916E00C480078042809D141030B480F
:102D800000F0E3F901214903084800F0DEF908E00A
:102D900005480078032804D10121C903034800F045
:102DA000D4F910BD8A0000208C00002000080050DB
:102DB0000149086170470000002401400249C969C7
:102DC0008143014AD1617047002401400249C96929
:102DD0000143014AD1617047002401400248006864
:102DE000042108408008704700240140014604483F
:102DF00000690840884201D1012070470020FCE7AB
:102E00000024014010B5044620682D4989688900D6
:102E1000890801432A4A916000BF0321890720687D
:102E200088420AD16068114689680F2212069143D0
:102E30000143234A916000BF00BFA06800280DD065
:102E4000E0681F49496807221204914301431C4A64
:102E5000516000BFA06800F035F802E0A06800F003
:102E600031F8E0691649496803221203914301438E
:102E7000134A516000BF2069114689690909090197
:102E80000143916100BF606911468969F022914355
:102E9000020111430A4A916100BFA06911464968C5
:102EA000D21491430143064A516000BF206A114683
:102EB0004968042291430143014A516000BF10BD9B
:102EC000002401400449496803225202914301430E
:102ED000014A516070470000002401400648006923
:102EE0000421084304490861084600690121084398
:102EF000014908617047000000E000E010B5044699
:102F000003E07D20C00000F005F82046641E002884
:102F1000F7D110BD10B504460C490D480068FDF707
:102F2000E9F8444301200006844200D900E020462D
:102F30000446601E074948610020886100BF0548BB
:102F40000069C003C00F0028F9D010BD40420F0037
:102F50009000002000E000E0C206D20E0121914066
:102F6000014A91607047000000180240014606487F
:102F70008068CB06DB0E01229A401040002801D069
:102F8000012070470020FCE7001802400149086159
:102F90007047000000200240F8B505460C46322775
:102FA000052000F039F80646002E1FD1284600F013
:102FB00029F8022D0BD100BF0D4840697F2109027D
:102FC0008843210208430A49486100BF052700BF22
:102FD00007484069082108430549486100BF384651
:102FE00000F01AF80646002000F00CF83046F8BD54
:102FF0000020024010B5044621460220FFF7CCFF16
:1030000010BD000003494969062291430143014A6A
:10301000516170470020024070B504467D21C9000F
:1030200010480068FDF766F86043054604E0002D8F
:1030300001D1042070BD6D1E012000040A490969F8
:103040000140814201D1012100E000210029EED19F
:10305000054800691C210840002801D00120E9E74B
:103060000020E7E7900000200020024070B50446F1
:103070000D460120FFF7D0FF0646002E15D100BFF8
:103080000B484069012108430949486100BF256098
:103090000120FFF7C1FF064600BF05484069400810
:1030A00040000349486100BF00BF304670BD0000CA
:1030B00000200240024610690840884201D10120E8
:1030C00070470020FCE7F8B507460C4600250026AF
:1030D00021E00121A940206808400646002E19D0B1
:1030E00031463846626800F065F831463846A268D5
:1030F00000F075F8606802280CD1FF2E05D8314623
:103100003846226900F025F804E031463846226945
:1031100000F031F86D1C2068E8400028D9D16068C3
:10312000012802D06068022804D13846E26821688C
:1031300000F04DF8F8BD816270478162704781628E
:103140007047816270478162704781627047816217
:10315000704730B5046A0B464B434B434B431D014C
:10316000ED1A2346AB430C464C434C434C4354436B
:103170002343036230BD30B50B0A5B430C0A634343
:103180000C0A63431C01E41A436AA3430C0A644318
:103190000D0A6C430D0A6C4354432343436230BD14
:1031A00081617047816170478161704781617047BB
:1031B0008161704730B503680C464C436500641963
:1031C000A3430C464C4354432343036030BD10B526
:1031D00043688B430C4654432343436010BD30B5D2
:1031E000C3680C464C4365006419A3430C464C432A
:1031F00054432343C36030BD42694A404261704733
:10320000034800684008400001490860704700001A
:10321000002400400146044880680840884201D1EB
:10322000012070470020FCE70024004010B5044650
:10323000FFF7E6FF00BF0120FFF7ECFF0028FAD1FF
:103240006168206A084321680843216908431049DE
:103250000968104A114008430D490860E168A068F8
:103260000843A1690843E1690843616908430849C3
:103270004968094A114008430549486000BF0846AB
:103280000068012108430249086000BF10BD00002A
:103290000024004053CFFFFFC2FF030630B5054BAB
:1032A00084001B59CC43A3431343024C8500635154
:1032B00030BD0000142400400449496B0143034A17
:1032C000516300BF00BF00BF704700000010024004
:1032D0000449496B0143034A516300BF00BF00BF6B
:1032E0007047000000100240CA4302617047016845
:1032F000012211430160704702461069084088426C
:1033000001D1012070470020FCE70246D068084048
:10331000884201D1012070470020FCE710B58A687F
:10332000C26200BF026880239A430B691A4302609D
:103330004A6803687024A3431343036000BFCA684C
:10334000036803242402A3431343036000BF0A68F5
:10335000826200BF0122426100BF024AD34303617F
:1033600000BF10BD5F1E0000C2680A43C260704704
:1033700010B50120C002064909680322D202914318
:103380000143034A116000BFFDF7EEF910BD0000D4
:103390000010024010B586B0142101A8FCF748FFC8
:1033A0000220FFF789FF114911480068FCF7A2FECF
:1033B000441E0194002002905020039000200490AD
:1033C000059001A90B48FFF7A9FF00210F20FDF789
:1033D000BBFA0F20FDF7ACFA01210648FFF7C4FF46
:1033E0000448FFF784FF06B010BD000040420F0004
:1033F000900000200004004010B586B0142101A800
:10340000FCF716FF4020FFF757FF114911480068ED
:10341000FCF770FE441E019400200290632003908C
:1034200000200490059001A90B48FFF777FF0021C9
:103430001220FDF789FA1220FDF77AFA01210648D9
:10344000FFF792FF0448FFF752FF06B010BD0000DF
:1034500010270000900000200010004010B5E54843
:10346000007800287ED00020E249087000BFE248C2
:10347000E249086000BFE2480078002804D0E04834
:103480000078401EDE490870DE48008800280BD016
:10349000DC480088401EDB49088008460088002878
:1034A00002D1F12000F070FA012189020520000705
:1034B000FFF700FE00283AD0D348007802280BD04E
:1034C000D1480078032807D0CF480078042803D0DB
:1034D000CD480078052811D1CC480088032822DB8C
:1034E000CA480088FF212D3188421CD0C848007886
:1034F000002818D10120C649087014E0C24800789D
:103500000D2810D1C148008803280CDBBF48008873
:10351000FF212D31884206D0BD480078002802D115
:103520000320BB4908700020B849088043E0B64832
:10353000007806281CDBB44800780C2818DCB34857
:103540000088C82837DAB1480088401C80B2AF49EB
:103550000880C8282FD1AF48007800282BD15A20E6
:10356000AC4900E032E10870F12000F00DFA22E0F1
:10357000A6480088FF212D3188421CDAA348008824
:10358000401C80B2A1490880FF212D31884212D110
:10359000A1480078002801D1012000E000209E49C8
:1035A0000870084600789D494861FDF781FEFCF7E8
:1035B00093FEFFF753F9202105200007FFF77AFD5E
:1035C000002803D000209649087027E0944800782E
:1035D000032823DA92480078401CC0B29049087052
:1035E00003281BD18F480078022803D105208D497C
:1035F00008700AE08B480078052803D10A20894921
:10360000087002E0022087490870864800788349E4
:103610000861FDF74DFE6420794908708248006812
:10362000002804D080480068401E7F49086020219F
:1036300005200007FFF73EFD00283ED0012189024A
:1036400005200007FFF736FD002836D06F480088B8
:10365000002832D16C48007805282ED173480068C4
:1036600000282AD172480078002826D068480078BF
:10367000002822D16248007800281ED16A480068DC
:10368000642805D36848006864386749086002E028
:103690000020654908606420664908806648006823
:1036A000001D6549086065480088001D6349088061
:1036B00063480078001D62490870FFF787FA5D488B
:1036C0000088401C80B25B49088064287EDB0020B3
:1036D00008805C480078401CC0B25A4908706428D1
:1036E0000EDB00200870012189035748FFF758FDC1
:1036F0006420FFF703FC012189035348FFF71DFDF8
:103700004448007800280CD042480078401E4149C7
:10371000087008460078002803D14C48007800F073
:1037200033F9FDF7C3F941480068642809D34848D4
:1037300000780A2808DA46480078401C4449087096
:1037400002E00020424908703948007802281BD165
:103750002D480078062817D037480068401C3649A5
:103760000860B42813D328480078052808D106201B
:1037700000F00AF9FFF772F87D20C000FFF7BEFBEA
:1037800000202D49086002E000202B4908601E48F7
:103790000078062807DB1C4800780C2803DC022090
:1037A0002C49087002E005202A4908702448007856
:1037B000401CC0B22249087026490978884208DBBB
:1037C00000201F490870FCF787FD00E011E0FDF7BD
:1037D00075FC0D480078042805D00D4800780028B5
:1037E00001D1FFF73BF808480078042801D1FFF722
:1037F00035F810BD04000020AAAA000000300040E7
:103800000A0000203C0000203800002014000020A6
:10381000160000208E0000205D0000209400002093
:1038200012000020170000200000002040000020AF
:103830005A000020060000200C0000208A00002012
:103840000800002011000020000800508D0000201A
:10385000100000200900002010B5344800683449E9
:10386000096888422DD931490968314A1268891A94
:10387000C822514308462F490968FCF73BFC2E49F2
:10388000086008460068232802D2002008601BE078
:103890002948006864280BD2274909682339642223
:1038A000514308464121FCF725FC234908600BE001
:1038B000214800682149884206D908461E49086007
:1038C00002E000201C4908601D4909681D4A126871
:1038D000914205D91A4909681A4A1268891A04E0FE
:1038E00018490968164A1268891A08466421FCF7C3
:1038F00001FC1549086008460068032804D90846F9
:103900000068C01E086002E000200F4908600E48F1
:103910000068052802D905200B4908600A4800689C
:10392000C100081A0849086010BD00001C000020F2
:103930004C00002050000020400000200F27000015
:103940002C000020540000204400002010B501206D
:1039500000070B49496B0143094A516300BF00BF8F
:1039600000BF00BF00BF074800680121C90308432A
:103970000449086000BF0120FFF7C0FA10BD000035
:10398000001002400070004070B50446F12C01D0D8
:103990004248047042480078002802D0F12C00D040
:1039A00070BD022105200007FFF702FC0320FFF78E
:1039B000A5FA002529E0E007C00F002811D0022158
:1039C00005200007FFF7C3FB3648FFF7A3FA0221E3
:1039D00005200007FFF7ECFBFF205F30FFF79AFAA6
:1039E00010E0022105200007FFF7B1FBFF205F3048
:1039F000FFF790FA022105200007FFF7D9FB2948BD
:103A0000FFF788FA6410681CC5B2082DD3DB0221C9
:103A100005200007FFF79BFBF12C3DD16420FFF749
:103A20006DFA022105200007FFF7C2FB0320FFF714
:103A300065FA002529E0E007C00F002811D0022117
:103A400005200007FFF783FB1648FFF763FA022102
:103A500005200007FFF7ACFBFF205F30FFF75AFAA5
:103A600010E0022105200007FFF771FBFF205F3007
:103A7000FFF750FA022105200007FFF799FB0948DC
:103A8000FFF748FA6410681CC5B2082DD3DB022189
:103A900005200007FFF75BFB00BF81E78D000020DA
:103AA0008E0000207E0400000100000002000000E3
:103AB00004000000080000001000000020000000CA
:103AC0004000000080000000010000000100000034
:103AD00001000000010000000200000004000000DE
:103AE0000800000010000000083B00080000002053
:103AF00094000000C00900089C3B000894000020CE
:103B000084040000D009000800000000000000004C
:103B100000000000000000000000000000000000A5
:103B20000000000000000000000000000000000095
:103B30000000000000000000000000000000000085
:103B40000000000000000000000000000000000075
:103B50000000000000000000000000000000000065
:103B60000000010100010000000000000000000052
:103B7000000000000000000000000000FFFF000047
:103B8000FFFF0000FFFF0000FFFF0000FFFF00003D
:0C3B900000000000000000000024F40011
:04000005080000C12E
:00000001FF
