:020000040800F2
:1000000008040020D9000008E1000008E30000080F
:1000100000000000000000000000000000000000E0
:10002000000000000000000000000000E5000008E3
:100030000000000000000000E7000008E9000008E0
:10004000EB000008EB000008EB000008EB000008E4
:10005000EB000008EB000008EB000008EB000008D4
:10006000EB000008EB000008EB00000800000000B7
:10007000EB0000080000000000000000EB0000089A
:10008000EB000008EB00000885020008EB00000808
:10009000EB000008EB00000800000000EB00000887
:1000A000EB000008EB000008EB000008EB00000884
:1000B000EB000008EB000008EB000008EB00000874
:1000C0000448854600F03EF8004800473D0400081B
:1000D000C046C04608040020044880470448004742
:1000E000FEE7FEE7FEE7FEE7FEE7FEE76502000843
:1000F000C100000830B50B46014600202022012433
:1001000009E00D46D5409D4205D31D469540491B4B
:100110002546954040191546521E002DF1DC30BD94
:10012000D2B201E00270401C491EFBD2704700228F
:10013000F6E710B513460A4604461946FFF7F0FFE6
:10014000204610BD064C0125064E05E0E36807CCAD
:100150002B430C3C98471034B442F7D3FFF7B4FF5D
:100160005007000870070008FEB53948806838213C
:100170000840102812D004DC002848D0082845D1B7
:1001800004E0182807D0202840D101E0314D4DE08F
:100190000125ED034AE07D252D0247E02C48C0688B
:1001A000C607F60F002E01D02A4C04E0002E01D124
:1001B000294C00E000242648C068F8210840C70800
:1001C0002348C068072109020840000A0290002F56
:1001D00000D120270298002801D108200290214652
:1001E000794308460299FFF785FF04461848C0681E
:1001F000032149040840400C0190012201988240EB
:1002000011462046FFF776FF05460FE000BF104875
:1002100000680321C9020840C10A012088400090FB
:100220000D480099FFF766FF054600BF00BF08486C
:100230008068072109020840000A800007490C581D
:1002400021462846FFF756FF05490860FEBD00001D
:100250000010024000127A000024F4001007000889
:1002600004000020034804498860044804490860E9
:10027000704700000000000800ED00E00024F400DA
:100280000400002001201449C9680140814200D1C6
:1002900000E0002100291DD001200F49096901401B
:1002A000814200D100E00021002913D00B480078E2
:1002B000401C0A49087008460078322804DB0020F8
:1002C00008700120064908700120C143024A1161EB
:1002D00000BF00BF70470000001000400000002079
:1002E0000100002010B586B0142101A8FFF71FFF00
:1002F00040200E49496B01430C4A516300BF00BFC7
:1003000000BF00BF0A490B480068FFF7F3FE441E18
:100310000194002002906320039000200490059037
:1003200001A9054800F050F906B010BD00100240C8
:1003300010270000040000200010004010B5002825
:1003400019DB1A4A03231B02D21883089B00D258D8
:100350008307DC0EFF23A3409A438B071B0E840701
:10036000E40EA3401A43114B032424021B198408F2
:10037000A4001A5118E00E4A03071B0F083B9B0804
:100380009B00D2588307DC0EFF23A3409A438B07C0
:100390001B0E8407E40EA3401A43054B0407240FE9
:1003A000083CA408A4001A5110BD000000E100E0C0
:1003B0001CED00E002E008C8121F08C1002AFAD1B3
:1003C00070477047002001E001C1121F002AFBD1D5
:1003D0007047000001200749C9680143054AD16000
:1003E00000BF00BF104600680121084311460860A5
:1003F00000BF70470010004000B585B0142168466A
:10040000FFF795FE04200B49C96A0143094AD162EE
:1004100000BF00BF00BF00BF0120C003009001204B
:1004200001900290002003906946034800F04AF8CA
:1004300005B000BD001002400008005000F0EAF8CE
:1004400000F030F8FFF7D8FFFFF74CFFFFF7C2FFCF
:1004500000F016F80FE00848007800280BD00020C4
:10046000054908700120C003044949694140034A15
:10047000516100BF00BFEEE70100002000080050FE
:1004800010B500211220FFF759FF1220002805DBCC
:10049000C206D20E01219140014A116000BF10BD79
:1004A00000E100E0064800690421084304490861AE
:1004B00008460069012108430149086170470000AE
:1004C00000E000E0F8B507460C460025002621E0D4
:1004D0000121A940206808400646002E19D0314667
:1004E0003846626800F04DF831463846A26800F0A0
:1004F0005DF8606802280CD1FF2E05D831463846D9
:10050000226900F017F804E031463846226900F00D
:1005100023F86D1C2068E8400028D9D160680128C4
:1005200002D06068022804D13846E268216800F0F1
:1005300035F8F8BD30B5046A0B464B434B434B438B
:100540001D01ED1A2346AB430C464C434C434C4330
:1005500054432343036230BD30B50B0A5B430C0A9E
:1005600063430C0A63431C01E41A436AA3430C0A65
:1005700064430D0A6C430D0A6C43544323434362A6
:1005800030BD30B503680C464C4365006419A34385
:100590000C464C4354432343036030BD10B54368BD
:1005A0008B430C4654432343436010BD30B5C368AE
:1005B0000C464C4365006419A3430C464C4354431A
:1005C0002343C36030BD000010B58A68C26200BF1B
:1005D000026880239A430B691A4302604A680368E1
:1005E0007024A3431343036000BFCA680368032455
:1005F0002402A3431343036000BF0A68826200BF62
:100600000122426100BF024AD343036100BF10BD13
:100610005F1E000070B502203A4909688908890008
:100620000143384A116000BF00BF37480068911588
:1006300008433549086000BF00BF00BF324800686A
:10064000012189020840800A0028F6D0002060219C
:100650000122520213022C4CE4682C4D2C4005461A
:100660001D430D4315432C43274DEC6000BF00BFD5
:1006700028460068D10308432946086000BF00BF30
:1006800000BF21480068012149060840400E0028AB
:10069000F6D000BF1C48C068491208431A49C86018
:1006A00000BF02208968C908C9000143164A916049
:1006B00000BF00BF00BF14488068382108401028E0
:1006C000F8D10020104989680722120291430143A2
:1006D0000D4A916000BF00BF1146896807221203CE
:1006E00091430143084A916000BF00BF11468968E9
:1006F0000722120491430143034A916000BFFFF7B0
:1007000033FD70BD002002400010024006F8F9FFE2
:1007100001000000020000000400000008000000CA
:1007200010000000200000004000000080000000D9
:1007300001000000010000000100000001000000B5
:10074000020000000400000008000000100000008B
:10075000700700080000002008000000B403000833
:10076000780700080800002000040000C403000807
:08077000000000000024F40069
:04000005080000C12E
:00000001FF
