:020000040800F2
:1000000010040020D9000008E1000008E300000807
:1000100000000000000000000000000000000000E0
:10002000000000000000000000000000E5000008E3
:100030000000000000000000E7000008E9000008E0
:10004000EB000008EB000008EB000008EB000008E4
:10005000EB000008EB000008EB000008EB000008D4
:10006000EB00000869010008EB0000080000000038
:10007000EB0000080000000000000000EB0000089A
:10008000EB000008EB000008EB000008EB000008A4
:10009000EB000008EB00000800000000EB00000887
:1000A000EB000008EB000008EB000008EB00000884
:1000B000EB000008EB000008EB000008EB00000874
:1000C0000448854600F03EF8004800475105000806
:1000D000C046C0461004002004488047044800473A
:1000E000FEE7FEE7FEE7FEE7FEE7FEE7BD020008EB
:1000F000C100000830B50B46014600202022012433
:1001000009E00D46D5409D4205D31D469540491B4B
:100110002546954040191546521E002DF1DC30BD94
:10012000D2B201E00270401C491EFBD2704700228F
:10013000F6E710B513460A4604461946FFF7F0FFE6
:10014000204610BD064C0125064E05E0E36807CCAD
:100150002B430C3C98471034B442F7D3FFF7B4FF5D
:100160001C0B00083C0B000800210220124A14233B
:100170004B43D2580240824201D1012200E00022CA
:10018000002A17D002200C49083909680140814231
:1001900001D1012100E0002100290BD002200649F5
:1001A000083949680143044A083A516000BF0120F8
:1001B0000249087070470000080002400400002057
:1001C000FEB53948806838210840102812D004DC78
:1001D000002848D0082845D104E0182807D0202856
:1001E00040D101E0314D4DE00125ED034AE07D2590
:1001F0002D0247E02C48C068C607F60F002E01D03C
:100200002A4C04E0002E01D1294C00E000242648AD
:10021000C068F8210840C7082348C06807210902C0
:100220000840000A0290002F00D1202702980028E1
:1002300001D1082002902146794308460299FFF730
:1002400059FF04461848C068032149040840400C7F
:10025000019001220198824011462046FFF74AFF93
:1002600005460FE000BF104800680321C90208409E
:10027000C10A0120884000900D480099FFF73AFF1D
:10028000054600BF00BF08488068072109020840F2
:10029000000A800007490C5821462846FFF72AFF2C
:1002A00005490860FEBD00000010024000127A00FF
:1002B0000024F400DC0A0008080000200348044978
:1002C0008860044804490860704700000000000886
:1002D00000ED00E00024F40008000020002805DB09
:1002E000C206D20E01219140014A11607047000000
:1002F00000E100E010B5002819DB1A4A03231B02B5
:10030000D21883089B00D2588307DC0EFF23A3403A
:100310009A438B071B0E8407E40EA3401A43114B2C
:10032000032424021B198408A4001A5118E00E4A61
:1003300003071B0F083B9B089B00D2588307DC0E6A
:10034000FF23A3409A438B071B0E8407E40EA340B0
:100350001A43054B0407240F083CA408A4001A51B3
:1003600010BD000000E100E01CED00E002E008C864
:10037000121F08C1002AFAD170477047002001E01F
:1003800001C1121F002AFBD17047000000B589B0DF
:1003900024216846FFF7CBFE0120000500F0B2FAE9
:1003A0000020009007900120C0020690801002906B
:1003B00000020390072004900590002008906846F2
:1003C00000F010F904202649C9690143244AD1618B
:1003D00000BF04210846002905D1926903029A430F
:1003E0001F4B9A6105E01E4A926903021A431C4B97
:1003F0009A6100BF00BF1A484068012108431849AC
:10040000486000BF00BF08464068012189030843D7
:100410001349486000BF002089684908490001432A
:100420000F4A916000BF00BF01201146086000BF65
:10043000032000F053F900BF0120C00708490860FD
:1004400000BF00BF0120C002054909690140814287
:1004500001D1012100E000210029F3D009B000BD45
:10046000002401401FB500200090019002900390ED
:1004700000900548019005480290012003906846CD
:1004800000F094F91FBD0000402401400600002048
:1004900010B588B01C2101A8FFF749FE01201749BB
:1004A000096B0143154A116300BF00BF00BF00BFC5
:1004B0000020019002900120039000200490102061
:1004C0000590402006904001079001A800F028F90F
:1004D000002002210A4A14234343D2580A43084BFE
:1004E000142444431A5100BF01210920FFF702FFE1
:1004F0000920FFF7F3FE08B010BD00000010024015
:100500000800024000B585B014216846FFF70FFED1
:1005100001200E49C96A01430C4AD16200BF00BFE5
:1005200000BF00BF0820009003200190694605200D
:10053000000700F059F9012000900320019069465E
:100540000520000700F050F905B000BD0010024082
:1005500000F00AFA00F0B2F8FFF7D4FF00F07AFAE0
:1005600000F04AFAFFF712FFFFF792FFFFF77AFF5A
:1005700000F02EF800BF0F480068012108430D4924
:10058000086000BF00BF04200B49086000BF10E0F6
:100590000A48007801280CD1002008490870084951
:1005A0000988084A514308460749FFF7A3FD074950
:1005B0000860EDE700040040002401400400002032
:1005C00006000020B80B0000FF0F00000000002014
:1005D00010B500210920FFF78DFE0920FFF77EFEF0
:1005E00010BD000010B5044620682D4989688900B7
:1005F000890801432A4A916000BF032189072068C6
:1006000088420AD16068114689680F221206914318
:100610000143234A916000BF00BFA06800280DD0AD
:10062000E0681F49496807221204914301431C4AAC
:10063000516000BFA06800F035F802E0A06800F04B
:1006400031F8E069164949680322120391430143D6
:10065000134A516000BF20691146896909090901DF
:100660000143916100BF606911468969F02291439D
:10067000020111430A4A916100BFA069114649680D
:10068000D21491430143064A516000BF206A1146CB
:100690004968042291430143014A516000BF10BDE3
:1006A0000024014004494968032252029143014356
:1006B000014A51607047000000240140064800696B
:1006C00004210843044908610846006901210843E0
:1006D000014908617047000000E000E010B50446E1
:1006E0000C490D480068FFF705FD44430120000652
:1006F000844200D900E020460446601E0749486154
:100700000020886100BF05480069C003C00F0028B1
:10071000F9D010BD40420F000800002000E000E0CA
:1007200030B5C468436823430469234344692343C1
:100730001A468469224301680E4B14244C431B590A
:100740000D4C234013430B4C14254D43635100BF04
:1007500002890168234614244C431B591F24240496
:10076000A34314042343034C14254D43635100BF9A
:1007700030BD0000080002400FE7FFFF024A1423CB
:100780004343D218D160704708000240024A142344
:100790004343D2189160704708000240024A142374
:1007A0004343D218516070470800024010B5044618
:1007B000E1682068FFF7F2FF61682068FFF7E6FF55
:1007C000A1682068FFF7DAFF206806491422424337
:1007D000895801221143034A14234343D15000BFD7
:1007E00010BD000008000240F8B507460C46002581
:1007F000002621E00121A940206808400646002E7D
:1008000019D031463846626800F04DF83146384616
:10081000A26800F05DF8606802280CD1FF2E05D8B0
:1008200031463846226900F017F804E03146384670
:10083000226900F023F86D1C2068E8400028D9D117
:100840006068012802D06068022804D13846E26856
:10085000216800F035F8F8BD30B5046A0B464B430B
:100860004B434B431D01ED1A2346AB430C464C430F
:100870004C434C4354432343036230BD30B50B0A11
:100880005B430C0A63430C0A63431C01E41A436A8A
:10089000A3430C0A64430D0A6C430D0A6C43544392
:1008A0002343436230BD30B503680C464C436500BA
:1008B0006419A3430C464C4354432343036030BDA7
:1008C00010B543688B430C4654432343436010BD2B
:1008D00030B5C3680C464C4365006419A3430C460D
:1008E0004C4354432343C36030BD00000449496B6B
:1008F0000143034A516300BF00BF00BF70470000BF
:10090000001002400449896B0143034A916300BF10
:1009100000BF00BF704700000010024010B58A6899
:10092000C26200BF0268E0239A430B691A43026067
:100930004A6803687024A3431343036000BFCA6876
:10094000036803242402A3431343036000BF0A681F
:10095000826200BF0122426100BF024AD3430361A9
:1009600000BF10BD5F1E000010B500BF2148006829
:10097000FF21013108431F49086000BF00BF00BFCD
:100980001C480068012189020840800A0028F6D02E
:10099000002018498968C908C9000143154A9160B7
:1009A00000BF00BF00BF13488068382108400028FE
:1009B000F8D100BF0F498968072212029143014311
:1009C0000C4A916000BF00BF1146896807221203DC
:1009D00091430143074A916000BF00BF11468968F7
:1009E0000722120491430143024A916000BFFFF7BE
:1009F000E7FB10BD0010024010B586B0142101A81D
:100A0000FFF795FB0220FFF771FF0E490E480068C3
:100A1000FFF770FB441E0194002002900B480390E6
:100A200000200490059001A90948FFF777FF2020D6
:100A300007494968702291430143054A516000BF4C
:100A400006B010BD40420F0008000020FFFF00006C
:100A50000004004010B50120FFF754FF01200007FB
:100A6000FFF744FF00BF194800680121C90308438C
:100A70001649086000BF1E20FFF730FE00BF144873
:100A8000006B400840001249086300BF1149C86963
:100A900011490968C909C90101430F4A116000BF22
:100AA00008200B49096B0C2291430143084A11634A
:100AB00000BF00BF1046006B0121084311460863C8
:100AC00000BF7D20C000FFF709FE10BD0070004090
:100AD00080010140C003FF1F00110240010000001F
:100AE00002000000040000000800000010000000E8
:100AF0002000000040000000800000000100000015
:100B000001000000010000000100000002000000E0
:100B10000400000008000000100000003C0B00086A
:100B2000000000200C0000006C030008480B0008C7
:100B30000C000020040400007C03000800000000FA
:080B4000000000000024F40095
:04000005080000C12E
:00000001FF
