:020000040800F2
:1000000080040020D9000008E1000008E300000897
:1000100000000000000000000000000000000000E0
:10002000000000000000000000000000E5000008E3
:100030000000000000000000E7000008E9000008E0
:10004000EB000008EB000008EB000008EB000008E4
:10005000EB000008EB000008EB000008EB000008D4
:10006000EB00000891010008EB0000080000000010
:10007000EB0000080000000000000000EB0000089A
:10008000EB000008EB000008A1070008EB000008E7
:10009000EB000008EB00000800000000EB00000887
:1000A000EB000008EB000008EB000008EB00000884
:1000B000EB000008EB000008EB000008EB00000874
:1000C0000448854600F052F8004800472125000802
:1000D000C046C046800400200448804704480047CA
:1000E000FEE7FEE7FEE7FEE7FEE7FEE7ED060008B7
:1000F000C100000830B50B46014600202022012433
:1001000009E00D46D5409D4205D31D469540491B4B
:100110002546954040191546521E002DF1DC30BD94
:1001200070B500242546002801DA01244042002948
:1001300001DA01254942FFF7DDFFAC4200D0404221
:10014000002C00D0494270BDD2B201E00270401CC8
:10015000491EFBD270470022F6E710B513460A4647
:1001600004461946FFF7F0FF204610BD064C012556
:10017000064E05E0E36807CC2B430C3C984710344F
:10018000B442F7D3FFF7A0FF782D0008982D0008A0
:1001900000210220124A14234B43D25802408242CB
:1001A00001D1012200E00022002A17D002200C49D0
:1001B000083909680140814201D1012100E0002194
:1001C00000290BD002200649083949680143044A36
:1001D000083A516000BF01200249087070470000D2
:1001E00008000240280000200146054808180028A1
:1001F00001D1401E70470248081802681046F9E70E
:1002000000600008002800D17047074909680160B4
:100210000168491C002902D1044A117002E003213F
:10022000024A117000BFEFE7006000085200002092
:1002300070B51F4800681F4908601F480068486083
:100240001C201E49086100BF00BF1D4888601D4872
:10025000886000BF00BF08464069C00F002822D157
:10026000302002F019FB054612480168164802F0DA
:100270004FFB104841681448001D02F049FB02E0A2
:1002800002F000FB70BD002DFAD10F48046800BFDA
:1002900008480068A042FBD10B48446800BF0548ED
:1002A0004068A042FBD102F0EDFA00BFEAE700008F
:1002B00048000020540000203800002000200240A8
:1002C000851A7AE591836E7C0060000810B500F015
:1002D00011F9E02000F0DCF800F04CF9352000F0D6
:1002E000D7F800F047F9172000F0D2F800F042F9F3
:1002F00000F020F9022002F005FA00F0FBF8E020FF
:1003000000F0C6F800F036F9782000F0C1F800F0EF
:1003100031F9662000F0BCF800F02CF900F00AF981
:100320000C2002F0EFF900F0E5F8E12000F0B0F861
:1003300000F020F900F082F800022049086000F087
:1003400045F800F07BF81D49096808431B4908601F
:1003500000F03CF800F072F800F038F800F06EF8A9
:1003600000021749086000F031F800F067F81449FE
:10037000096808431249086000F044F800F0DAF810
:100380000E480068AF214843000C0E4908800988D8
:1003900020398A0088180921FFF7C2FE0A4908801F
:1003A0000748006864214843000C05490860084676
:1003B0000068632801D96320086010BD6800002030
:1003C00070000020740000207600002010B502218B
:1003D0000B4802F0FBFA00F0F7F80121084802F0A0
:1003E000F5FA052002F09AF90221054802F019FBFE
:1003F000052002F093F90221014802F0E7FA10BD4E
:100400000014005010B502210B4802F0DFFA00F092
:10041000DBF80121084802F004FB052002F07EF918
:100420000221054802F0FDFA052002F077F90221C9
:10043000014802F0CBFA10BD0014005070B5002442
:1004400000F0B0F800251DE00221104802F0BEFACD
:100450000A2002F063F902210C4802F0E2FA60047B
:10046000040C0120094909690140814200D100E0E2
:100470000021002901D0601C84B20A2002F04EF94C
:10048000681CC5B2082DDFDB204670BD001400508B
:1004900070B5044600F098F80221154802F096FA6B
:1004A000002522E080202040C011002804D0012136
:1004B0000F4802F0B6FA03E001210D4802F086FA77
:1004C0006006040E052002F029F90221084802F016
:1004D000A8FA052002F022F90221054802F076FA76
:1004E000052002F01BF9681CC5B2082DDADB70BDCF
:1004F0000014005010B500F067F801210C4802F01C
:1005000090FA02210A4802F08CFA0A2002F006F959
:100510000121074802F05AFA0A2002F0FFF80221EE
:10052000034802F053FA0A2002F0F8F810BD000068
:100530000014005010B500F047F802210C4802F0FA
:1005400045FA01210A4802F041FA0A2002F0E6F8D1
:100550000221074802F065FA0A2002F0DFF80121C3
:10056000034802F05EFA0A2002F0D8F810BD00003D
:100570000014005010B500F015F80121084802F0F1
:1005800050FA052002F0CAF80221054802F049FAA3
:10059000052002F0C3F80221014802F017FA10BD4D
:1005A0000014005000B585B014216846FFF7D3FD54
:1005B00001200090002001906946024802F0CCF929
:1005C00005B000BD0014005000B585B01421684688
:1005D000FFF7C1FD012000900190002003906946C3
:1005E000024802F0B9F905B000BD00000014005047
:1005F000FEB53948806838210840102812D004DC44
:10060000002848D0082845D104E0182807D0202821
:1006100040D101E0314D4DE00125ED034AE07D255B
:100620002D0247E02C48C068C607F60F002E01D007
:100630002A4C04E0002E01D1294C00E00024264879
:10064000C068F8210840C7082348C068072109028C
:100650000840000A0290002F00D1202702980028AD
:1006600001D1082002902146794308460299FFF7FC
:1006700041FD04461848C068032149040840400C65
:10068000019001220198824011462046FFF732FD79
:1006900005460FE000BF104800680321C90208406A
:1006A000C10A0120884000900D480099FFF722FD03
:1006B000054600BF00BF08488068072109020840BE
:1006C000000A800007490C5821462846FFF712FD12
:1006D00005490860FEBD00000010024000127A00CB
:1006E0000024F400382D0008780000200348044955
:1006F0008860044804490860704700000000000852
:1007000000ED00E00024F4007800002000BF06485F
:100710000068012108430449086000BF00BF0420AD
:100720000249086000BF70470004004000240140F7
:1007300010B586B0142101A8FFF70DFD0220134962
:10074000496B0143114A516300BF00BF00BF00BFA6
:100750000F4910480068FFF7CDFC441E01940020AB
:1007600002900D48039000200490059001A90B48C9
:1007700002F0F0F9202009494968702291430143B1
:10078000064A516000BF06B010BD000000100240D4
:1007900040420F0078000020FFFF000000040040EE
:1007A00001202B49C9680140814200D100E00021AD
:1007B00000294BD00120264909690140814200D11E
:1007C00000E00021002941D022480078401C214946
:1007D000087008460078642806DB002008701E4870
:1007E0000078C0431C4908701C480078401C1B4915
:1007F000087008460078322809DB00200870184885
:100800000078C04316490870012016490870164840
:100810000078401C1449087008460078192806DB47
:100820000020087011480078C04310490870104833
:100830000068002804D00E480068401E0C4908607B
:100840000120C143024A116100BF00BF7047000090
:1008500000100040040000200500002002000020DD
:1008600003000020510000200000002001000020B3
:100870000800002010B586B0142101A8FFF76BFC1A
:1008800040200E49496B01430C4A516300BF00BF31
:1008900000BF00BF0A490B480068FFF72BFC441E4D
:1008A00001940020029063200390002004900590A2
:1008B00001A9054802F04EF906B010BD0010024033
:1008C00010270000780000200010004030B474466B
:1008D000641E2578641CAB4204D3635D5B00E3189F
:1008E00030BC18471D46F8E7002805DBC206D20ECB
:1008F00001219140014A11607047000000E100E0D1
:1009000010B5002819DB1A4A03231B02D2188308EA
:100910009B00D2588307DC0EFF23A3409A438B072A
:100920001B0E8407E40EA3401A43114B0324240238
:100930001B198408A4001A5118E00E4A03071B0F64
:10094000083B9B089B00D2588307DC0EFF23A34083
:100950009A438B071B0E8407E40EA3401A43054BF2
:100960000407240F083CA408A4001A5110BD00007D
:1009700000E100E01CED00E010B5002819DB1A4A88
:1009800003231B02D21883089B00D2588307DC0E76
:10099000FF23A3409A438B071B0E8407E40EA3405A
:1009A0001A43114B032424021B198408A4001A5172
:1009B00018E00E4A03071B0F083B9B089B00D25808
:1009C0008307DC0EFF23A3409A438B071B0E84078B
:1009D000E40EA3401A43054B0407240F083CA40867
:1009E000A4001A5110BD000000E100E01CED00E081
:1009F00002E008C8121F08C1002AFAD170477047E8
:100A0000002001E001C1121F002AFBD17047000045
:100A100000B589B024216846FFF79DFB0120000541
:100A200002F08CF800200090012000030790401095
:100A30000690801002900002039007200490059019
:100A400000200890684601F0E1FD022001F0D6FD8B
:100A5000082001F0D3FD0221042001F0BDFD082192
:100A6000042001F0B9FD00BF1A4840680121084385
:100A70001849486000BF00BF08464068012189034B
:100A800008431449486000BF0020896849084900AC
:100A90000143104A916000BF00BF01201146086069
:100AA00000BF032001F03AFE00BF0120C007094942
:100AB000086000BF00BF0120C0020649096901406B
:100AC000814201D1012100E000210029F3D009B0C9
:100AD00000BD00000024014010B56148007803000B
:100AE000FFF7F4FE0504054344B0BA00B5E05D48E5
:100AF000007800281CD05C480068012189028843E6
:100B000059490860594800681021884357490860CE
:100B1000084600680121C903084354490860084693
:100B20000068082108435149086000F0EBFB1BE016
:100B30004E4800680121C90388434C4908600846B3
:100B40000068082188434949086047480068012136
:100B5000890208434449086044480068102108435A
:100B60004249086000F0CEFB77E076E0404800782C
:100B7000002819D03F480078002815DD3E4800784D
:100B8000002811D03B480078401E3A4908700020E8
:100B90003949087034480068102188433249086098
:100BA0003448007800F09AFD32480078002848DC8C
:100BB0002D480068102108432B49086000F09AF97D
:100BC0002848007800281ED02748006801218902A3
:100BD0008843254908602548006810218843234937
:100BE0000860084600680121C90308431F490860DE
:100BF00008460068082108431C4908601F4800682F
:100C000000F06CFD1DE0194800680121C90388430C
:100C1000164908600846006808218843134908609F
:100C2000114800680121890208430F4908600F48F4
:100C30000068102108430D4908601148006800F061
:100C40004DFD0AE00F480078002802D000F05AFB62
:100C500001E000F013FB00E000BF00BF10BD00008A
:100C60005200002005000020200000202400002069
:100C70000300002050000020510000204000002010
:100C8000440000200100002010B531480078030026
:100C9000FFF71CFE050405151B4B5B0056E02D48B5
:100CA0000078002805D00121C9032B4801F0B7FEC8
:100CB00004E00121C903284801F086FE46E0012135
:100CC000C903254801F0ABFE40E024480078002825
:100CD00009D023480078002805DD0121C9031E48FA
:100CE00001F09DFE20E01D480078002809D11C4835
:100CF0000078002805DD0121C903174801F064FED2
:100D000012E01748007800280EDC1248007800280E
:100D100005D00121C903104801F081FE04E0012142
:100D2000C9030D4801F050FE10E00E48007800287D
:100D300005D00121C903084801F071FE04E001213A
:100D4000C903054801F040FE00E000BF00BF10BD30
:100D50005200002005000020000800500300002081
:100D6000500000200100002010B545480068002810
:100D700000D010BD434800780300FFF7A7FD05042D
:100D80000C2941697C0001203E4908707D20C0008B
:100D90003B49086070E03C480068642817D93A482D
:100DA0000068E1218900884211D23848006864282F
:100DB0000DD935480068364908603448006835491F
:100DC000086035482E49086002202E49087053E01B
:100DD0002D4800682E490968401ABA2803D2BA2063
:100DE0002E49086006E02848006829490968401A29
:100DF0002A490860FFF71CFA0320224908703BE0EB
:100E00000020FFF7F1F9254908600420FFF7ECF90D
:100E10001F4908600020FFF7E7F920490968884268
:100E200006D10420FFF7E0F919490968884202D089
:100E300004201449087019480068154909684018C9
:100E400011490968884202D804200E49087013E04D
:100E5000124909680E4A126889185A2251430846F5
:100E60006421FFF747F908490968884202D3032043
:100E70000449087000E000BF00BF00BF79E7000030
:100E80000800002052000020300000203400002024
:100E9000380000203C000020DC0500004800002055
:100EA00010B50E480078012816D100200B490870B3
:100EB0000B4909880B4A514308460B49FFF71AF9B9
:100EC0000A49086006494988064A514308460649C6
:100ED000FFF710F90649086010BD00002800002047
:100EE0002A000020B80B0000FF0F00003400002093
:100EF0003000002010B53948006839490968884237
:100F000037D936490968364A1268891AC8225143C6
:100F1000084634490968FFF7EDF8334908600A21AB
:100F200031480068FFF7E6F80F2803D200202E4969
:100F3000086021E00A212C480068FFF7DBF86428EC
:100F40000BD2294909680F396422514308464121CF
:100F5000FFF7D0F8244908600EE00A212248006813
:100F6000FFF7C8F82149884206D908461E4908609B
:100F700002E000201C4908601D4909681D4A1268EA
:100F8000914205D91A4909681A4A1268891A04E077
:100F900018490968164A1268891A08466421FFF739
:100FA000A9F81549086008460068032804D90846CE
:100FB0000068C01E086002E000200F4908600E486B
:100FC0000068052802D905200B4908600A48006816
:100FD000C100081A0849086010BD00003000002058
:100FE0003800002048000020400000200F270000AB
:100FF000340000203C000020440000201FB50020E9
:1010000000900190029003900090054801900548DF
:10101000029002200390684601F0E8FB1FBD00002B
:10102000402401402A00002001200749C9680143EB
:10103000054AD16000BF00BF104600680121084387
:101040001146086000BF70470010004010B588B01E
:101050001C2101A8FFF77FF801201A49096B014301
:10106000184A116300BF00BF00BF00BF00200190FD
:101070000290012003900020049010200590402051
:1010800006904001079001A801F06AFB00200221B0
:101090000D4A14234343D2580A430B4B14244443B0
:1010A0001A5100BF01210920FFF766FC0920002822
:1010B00005DBC206D20E01219140044A116000BF37
:1010C00008B010BD001002400800024000E100E03E
:1010D00000B585B014216846FFF73DF827201D496B
:1010E000C96A01431B4AD16200BF00BF00BF00BFF5
:1010F0006320800100900220019003200490694643
:101100000520000701F028FC1348009069461348A9
:1011100001F022FC0720400200906946104801F0CF
:101120001BFC0320009001200190002002900390FE
:1011300069460C4801F010FC03200190102000903B
:101140000320019069460520000701F005FC05B069
:1011500000BD000000100240F8FF00000004005035
:10116000000800500014005010B50120000701F0E5
:10117000D9FC00BF1248406801210843104948606B
:1011800000BF642001F0CAFA00BF0E480068FF21CA
:10119000013108430B49086000BF48150849096838
:1011A0000322120291430143054A116000BF00BFB0
:1011B00004480068911588430249086000BF10BDCB
:1011C000401002400070004000B589B024216846FC
:1011D000FEF7C1FFFFF7C8FFFF20013001F0A2FCBE
:1011E0000120800624494968024691430143224A6E
:1011F000516000BF00BF10460068911508431146BA
:10120000086000BF00BF0846006849150843114642
:10121000086000BF00BF0846006809150843114672
:10122000086000BF00BF08460068C91408431146A3
:10123000086000BF0020009004200190000502908B
:101240000F2080040390881404900F20C00605909E
:101250000120069080200890684601F01DFC0120C6
:10126000400605494968024691430143024A5160DC
:1012700000BF09B000BD00000024004010B50F48B9
:101280000068FF21C90088430C4908600C480068C9
:10129000FF21C90088430A4908600A480068FF2105
:1012A000C900884307490860074800685721C900FA
:1012B00088430549086001F0E7F810BD14000020DC
:1012C000180000201C0000202000002010B5074856
:1012D000074908600749086007490860074908602E
:1012E0000749086001F0D0F810BD0000FFFF0000C2
:1012F00014000020180000201C0000202000002006
:101300002400002010B51C480068FF21C900884354
:101310001949086019480068FF21C9008843174926
:10132000086017480068FF21C90088431449086015
:10133000144800685721C9008843124908600F48C3
:1013400000680121890208430C49086008460068CA
:10135000FF2101310843094908600846006840211F
:1013600008430649086008460068102108430349FD
:10137000086001F089F810BD14000020180000205A
:101380001C0000202000002070B50646CC480068F4
:1013900002210843CA490860CA480068012189023D
:1013A0000843C8490860632E00DD6326C64800680C
:1013B00006218843C4490860C44800680621884360
:1013C000C2490860C248006806218843C0490860D5
:1013D000BB48006844218843B9490860B94800689F
:1013E000BC490840B74908600A213046FEF798FE1C
:1013F000C4B22300FFF76AFA0A060714212E3C4400
:101400004C5967756DE0AE48006840210843AC490F
:101410000860AC48006820210843AA49086060E0E1
:10142000A8480068AC490843A6490860A448006879
:1014300040210843A249086053E0A2480068E22125
:101440000843A04908609E480068402108439C4921
:10145000086046E09B480068FF21613108439949D4
:10146000086097480068402108439549086038E0C3
:1014700094480068FF21E33108439249086030E056
:10148000904800689349C94308438E49086028E0A2
:101490008C480068A02108438A4908608848006891
:1014A00040210843864908601BE086480068894956
:1014B000C9430843834908608148006840210843C4
:1014C0007F4908600DE07F480068FF21E331084351
:1014D0007C4908607A4800684021084378490860E0
:1014E00000BF00BF0A213046FEF71AFECDB22B0026
:1014F000FFF7ECF90A061F2C455E6B849DB0C9E22C
:1015000071480068062108436F4908606F48006809
:10151000042108436D4908606D48006806210843AE
:101520006B49086066480068042108436449086004
:10153000C2E06648006804210843644908606448C2
:1015400000680421084362490860B5E05E4800680D
:10155000062108435C4908605C4800680221084392
:101560005A4908605A4800680421084358490860ED
:101570005348006804210843514908609CE05248E0
:10158000006804210843504908605048006806215B
:1015900008434E4908604E480068042108434C49FE
:1015A000086047480068042108434549086083E013
:1015B00046480068062108434449086044480068DA
:1015C000062108434249086076E03F48006804214C
:1015D00008433D4908603D480068062108433B49EF
:1015E00008603B48006802210843394908603448D4
:1015F000006804210843324908605DE03248006811
:101600000621084330490860304800680621084335
:101610002E4908602E480068022108432C490860C2
:1016200027480068042108432549086044E027480A
:101630000068042108432549086025480068042102
:101640000843234908601E480068042108431C49D8
:10165000086031E01C480068062108431A49086008
:101660001A480068062108431849086018480068AD
:101670000621084316490860114800680421084300
:101680000F49086018E010480068042108430E491B
:1016900008600E480068062108430C4908600C48A1
:1016A0000068062108430A490860054800680421CB
:1016B00008430349086000BF00BF00F0E5FE70BDAD
:1016C000200000202400002014000020180000202A
:1016D0001C0000201DFCFFFFC2020000F8B50546FB
:1016E000FE48854200D90546FD480068FF21C90033
:1016F0008843FB490860FB480068FF21C900884314
:10170000F8490860F8480068FF21C9008843F64995
:101710000860F64800685521C9008843F34908600D
:101720007D21C9002846FEF7E5FCC4B22300FFF77F
:10173000CDF80A06071633506683A0B6D3F0E8E06A
:10174000E8480068012149020843E6490860E64884
:101750000068012149020843E3490860D9E0E048F4
:101760000068012149020843DD490860DD4800683E
:10177000032149020843DB490860DB480068012176
:1017800089020843D8490860D84800680121490205
:101790000843D6490860BCE0D148006801214902ED
:1017A0000843CF490860CF48006803214902084335
:1017B000CC490860CC480068012149020843CA4965
:1017C0000860CA480068012149020843C749086007
:1017D0009FE0C3480068012189020843C0490860AE
:1017E000C0480068032149020843BE490860BE485A
:1017F0000068012149020843BB49086089E0B848F4
:101800000068032149020843B5490860B5480068EB
:10181000012189020843B3490860B34800680121E7
:1018200049020843B0490860B048006801214902F4
:101830000843AE4908606CE0A948006803214902EA
:101840000843A7490860A7480068012189020843A6
:10185000A4490860A4480068032149020843A2493A
:101860000860A24800680121490208439F490860B6
:101870004FE09B48006801214902084398490860ED
:101880009848006801214902084396490860964833
:1018900000680121490208439349086039E09048F3
:1018A00000680321490208438D4908608D4800689B
:1018B0000321490208438B4908608B4800680321D3
:1018C00049020843884908608848006801214902A4
:1018D0000843864908601CE08148006803214902EA
:1018E00008437F4908607F48006803214902084394
:1018F0007C4908607C4800680121490208437A4914
:1019000008607A4800680121490208437749086065
:1019100000BF00BF7D21C9002846FEF7EBFB0D4646
:1019200064212846FEF7E6FBC6B23300FEF7CEFF81
:101930000A0623304B657A95B1C4EB22002C19D0EE
:1019400067480068FF2181310843654908606548A0
:101950000068802108436349086063480068FF21EC
:10196000813108436049086060480068802108436D
:101970005E490860E2E05B480068802108435949FD
:101980000860594800688021084357490860D5E03D
:101990005348006880210843514908605148006855
:1019A000FF21813108434F4908604F480068FF21FB
:1019B000013108434C4908604C48006880210843C5
:1019C0004A490860BAE04648006880210843444913
:1019D000086044480068FF2181310843414908609C
:1019E00041480068802108433F4908603F4800683B
:1019F000802108433D490860A0E039480068FF2184
:101A0000013108433649086036480068FF218131BA
:101A1000084334490860344800688021084332494B
:101A200008608BE02E480068FF21813108432C4973
:101A300008602C480068FF210131084329490860EB
:101A40002948006880210843274908602748006822
:101A5000802108432549086070E021480068FF2183
:101A6000813108431E4908601E480068FF2101318A
:101A700008431C4908601C480068FF218131084365
:101A8000194908601948006880210843174908600F
:101A900054E0134800688021084311490860114848
:101AA0000068802108430F4908600F4800688021C2
:101AB00008430D49086041E009480068FF21813171
:101AC00008430749086007480068FF21813108433F
:101AD0000449086004480068FF2109E00F2700005E
:101AE00014000020180000201C000020200000200E
:101AF00081310843FD490860FD48006880210843A2
:101B0000FB4908601AE0FB480068FF218131084367
:101B1000F8490860F8480068FF2181310843F64918
:101B20000860F248006880210843F0490860F048E6
:101B3000006880210843EE49086000BF00BF6421AF
:101B40002846FEF7D7FA0D460A212846FEF7D2FAB4
:101B5000C7B23B00FEF7BAFE0A0629364F687B94EF
:101B6000ADC0D9F2002C07D1002E05D1E0480068A5
:101B700010210840002817D0DE4800686021084383
:101B8000DC490860DC48006820210843DA49086025
:101B9000D648006860210843D4490860D4480068EA
:101BA00020210843D2490860C8E0D34800682021BA
:101BB0000843D1490860CD48006820210843CB493B
:101BC0000860BBE0CB48006820210843C949086091
:101BD000C948006860210843C7490860C3480068D5
:101BE00040210843C1490860C148006820210843DA
:101BF000BF490860A2E0BF48006820210843BD49F2
:101C00000860BD48006860210843BB490860B748C8
:101C1000006820210843B5490860B54800682021C4
:101C20000843B349086089E0B2480068402108438E
:101C3000B0490860B048006860210843AE490860B8
:101C4000AA48006820210843A849086076E0A9480E
:101C5000006860210843A7490860A7480068402140
:101C60000843A5490860A1480068202108439F490E
:101C700008609F480068202108439D4908605DE096
:101C80009C480068602108439A4908609A480068A7
:101C9000402108439849086094480068602108433F
:101CA00092490860924800682021084390490860E2
:101CB00044E090480068202108438E4908608E481F
:101CC0000068202108438C4908608848006820216A
:101CD00008438649086031E086480068602108436F
:101CE000844908608448006860210843824908608C
:101CF0007E480068602108437C4908607C48006891
:101D0000202108437A49086018E07A480068602179
:101D1000084378490860784800686021084376499C
:101D200008607248006820210843704908607048C4
:101D30000068202108436E49086000BF00BF0A21E7
:101D40002846FEF7D7F90D462B00FEF7BFFD0A0621
:101D50001F2C455E718AA3B6D7F06648006818212B
:101D600008436449086064480068082108436249E0
:101D700008605E480068182108435C4908605C48B8
:101D80000068082108435A490860D0E05A480068B2
:101D9000082108435849086054480068082108434E
:101DA00052490860C3E0534800680821084351497C
:101DB000086051480068182108434F4908604B48A3
:101DC0000068102108434949086049480068082113
:101DD000084347490860AAE04648006808210843CC
:101DE0004449086044480068182108434249086093
:101DF0003E480068082108433C4908603C480068A8
:101E0000082108433A49086091E03A4800681021E7
:101E100008433849086038480068182108433649A3
:101E200008603248006808210843304908607EE0B5
:101E300030480068182108432E4908602E48006881
:101E4000102108432C4908602848006808210843ED
:101E5000264908602648006808210843244908608C
:101E600065E0244800681821084322490860224898
:101E7000006810210843204908601C4800681821A8
:101E800008431A4908601A4800680821084318499D
:101E900008604CE0174800680821084315490860AD
:101EA0001548006808210843134908600F48006876
:101EB000082108430D49086039E00E4800681821E0
:101EC00008430C4908600C480068182108430A4977
:101ED000086006480068182108430449086004485F
:101EE0000068082108430249086020E01C00002027
:101EF0002000002014000020180000200F48006877
:101F0000182108430D4908600D480068182108434E
:101F10000B4908600B48006808210843094908601C
:101F200009480068082108430749086000BF00BF4E
:101F300000200649087000F0A7FAF8BD1400002040
:101F4000180000201C0000202000002010000020AD
:101F5000F8B50746FB4800680F21C9028843F949D4
:101F60000860F94800680F21C9028843F6490860F3
:101F7000F64800680F21C9028843F4490860F44814
:101F800000680D21C9028843F1490860F1480068E2
:101F9000012189038843EF490860ED480068012169
:101FA000C9030843EA490860EA4800680121C902F8
:101FB0000843E8490860E64800680121090308432E
:101FC000E3490860E3480068012109038843E149C7
:101FD0000860BC2F00DDBC2764213846FEF7A0F85E
:101FE000C4B2002C06D0DA480068012189030843F6
:101FF000D749086064213846FEF792F88FB20A216B
:102000003846FEF78DF8C5B22B00FEF75FFC0A06D6
:102010002534516E84A1BED4F224002C1BD0C948B3
:102020000068032149030843C6490860C6480068A0
:10203000012149030843C4490860C44800680321DA
:1020400049030843C1490860C148006801214903A8
:102050000843BF490860E9E0BB4800680121490323
:102060000843B9490860B948006801214903084399
:10207000B6490860DAE0B348006801214903084323
:10208000B0490860B0480068032149030843AE49DD
:102090000860AE480068012189030843AB49086025
:1020A000AB480068012149030843A9490860BDE025
:1020B000A4480068012149030843A2490860A248D6
:1020C00000680321490308439F4908609F4800684E
:1020D0000121490308439D4908609D48006801218A
:1020E000490308439A490860A0E096480068012126
:1020F0008903084393490860934800680321490312
:102100000843914908609148006801214903084348
:102110008E4908608AE08B48006803214903084320
:102120008849086088480068012189030843864976
:102130000860864800680121490308438349086014
:1021400083480068012149030843814908606DE024
:102150007C4800680321490308437A4908607A48AB
:1021600000680121890308437749086077480068BF
:102170000321490308437549086075480068012137
:10218000490308437249086050E06E480068012125
:10219000490308436B4908606B4800680121490303
:1021A00008436949086069480068012149030843F8
:1021B000664908603AE06348006803214903084320
:1021C00060490860604800680321490308435E498C
:1021D00008605E4800680321490308435B490860C2
:1021E0005B480068012149030843594908601DE024
:1021F000FFE7544800680321490308435149086038
:10220000514800680321490308434F4908604F487B
:1022100000680121490308434C4908604C480068A4
:102220000121490308434A49086000BF00BF0A2151
:102230003846FDF775FFCEB23300FEF747FB0A06BE
:1022400023324F6C8DAAC7DDFB223E480068032174
:10225000C90208433B4908603B4800680321C902A2
:10226000084339490860394800680321C902084316
:1022700036490860364800680121C90208433449DC
:102280000860F4E0304800680121C90208432E4983
:1022900008602E4800680121C90208432B490860E4
:1022A000E5E0284800680121C90208432549086083
:1022B000254800680321C9020843234908602348D0
:1022C000006801210903084320490860204800688C
:1022D0000121C90208431E490860C8E01948006886
:1022E0000121C90208431749086017480068032103
:1022F000C902084314490860144800680121C90252
:10230000084312490860124800680121C9020843C5
:102310000F490860ABE00B4800680121090308433E
:1023200008490860084800680321C90208430649B3
:102330000860064800680121C90208430349086093
:1023400095E0000014000020180000201C00002070
:102350002000002024000020474800680321C90213
:1023600008434549086045480068012109030843BE
:1023700042490860424800680121C90208434049B7
:102380000860404800680121C90208433D490860CF
:102390006DE0394800680321C902084336490860E6
:1023A000364800680121090308433449086034486D
:1023B00000680321C90208433149086031480068B8
:1023C0000121C90208432F49086050E02A480068EB
:1023D0000121C902084328490860284800680121F2
:1023E000C902084325490860254800680121C9023F
:1023F0000843234908603AE01F4800680321C902E6
:1024000008431D4908601D4800680321C9020843AC
:102410001A4908601A4800680321C902084318498C
:102420000860184800680121C9020843154908607E
:102430001DE0FFE7104800680321C90208430E4968
:1024400008600E4800680321C90208430B49086070
:102450000B4800680121C90208430949086009487E
:1024600000680121C90208430649086000BF00BF97
:1024700000F00AF8F8BD0000140000201800002049
:102480001C0000202000002010B50F4802680168E1
:10249000012000F039FB0D4802680168022000F0BD
:1024A00033FB0B4802680168032000F02DFB09484C
:1024B00002680168042000F027FB074802680168F1
:1024C000052000F021FB10BD1400002018000020A2
:1024D0001C000020200000202400002000B585B052
:1024E00014216846FDF737FE04200B49C96A0143F1
:1024F000094AD16200BF00BF00BF00BF0120C00376
:10250000009001200190029000200390694603484A
:1025100000F022FA05B000BD001002400008005093
:1025200000F03EFB00F0DEF8FEF7D2FDFEF770FA99
:1025300000F0B4FBFEF7FCF8FEF788FDFEF75EFD49
:10254000FEF7E4F8FFF7CAFFFEF794F9FEF76CFD1B
:1025500000F032F8FEF708FEFEF736FEFEF7B6FE94
:10256000FEF79EFC0F48FDF74DFE14200E49087043
:1025700016E0FEF7F9FBFEF787FBFEF7ADFA0B4816
:10258000007800280CD0FEF78BFCFDF79FFE084872
:102590000088FFF7DDFC0749098888B2FEF7F4FEE2
:1025A000E7E7000048000020500000200300002062
:1025B000760000207000002010B500211220FEF7E8
:1025C0009FF91220FEF790F901210920FEF798F9F2
:1025D0000920FEF789F910BD002806D1064A926944
:1025E0000B029A43044B9A6105E0034A92690B027D
:1025F0001A43014B9A617047002401400249C9699E
:102600000143014AD16170470024014010B50446DE
:1026100020682D4989688900890801432A4A916008
:1026200000BF03218907206888420AD160681146EB
:1026300089680F22120691430143234A916000BF2B
:1026400000BFA06800280DD0E0681F494968072234
:102650001204914301431C4A516000BFA06800F07E
:1026600035F802E0A06800F031F8E06916494968E1
:102670000322120391430143134A516000BF2069B2
:1026800011468969090909010143916100BF606927
:1026900011468969F0229143020111430A4A91616E
:1026A00000BFA06911464968D21491430143064A0C
:1026B000516000BF206A11464968042291430143DA
:1026C000014A516000BF10BD00240140044949681F
:1026D0000322520291430143014A516070470000B6
:1026E00000240140064800690421084304490861A8
:1026F000084600690121084301490861704700004C
:1027000000E000E010B5044603E07D20C00000F0CA
:1027100005F82046641E0028F7D110BD10B5044608
:102720000C490D480068FDF7E5FC44430120000614
:10273000844200D900E020460446601E07494861F3
:102740000020886100BF05480069C003C00F002851
:10275000F9D010BD40420F007800002000E000E0FA
:1027600030B5C46843682343046923434469234361
:102770001A468469224301680E4B14244C431B59AA
:102780000D4C234013430B4C14254D43635100BFA4
:1027900002890168234614244C431B591F24240436
:1027A000A34314042343034C14254D43635100BF3A
:1027B00030BD0000080002400FE7FFFF024A14236B
:1027C0004343D218D160704708000240024A1423E4
:1027D0004343D2189160704708000240024A142314
:1027E0004343D218516070470800024010B50446B8
:1027F000E1682068FFF7F2FF61682068FFF7E6FFF5
:10280000A1682068FFF7DAFF2068064914224243D6
:10281000895801221143034A14234343D15000BF76
:1028200010BD000008000240F8B505460C463227EE
:10283000052000F043F80646002E1FD1284600F080
:1028400033F8022D0BD100BF0D4840697F210902EA
:102850008843210208430A49486100BF052700BF99
:1028600007484069082108430549486100BF3846C8
:1028700000F024F80646002000F016F83046F8BDB7
:1028800000200240034840690121C907084301496B
:10289000486170470020024010B5044621460220DE
:1028A000FFF7C2FF10BD00000349496906229143AA
:1028B0000143014A516170470020024070B504464F
:1028C0007D21C90010480068FDF714FC60430546EF
:1028D00004E0002D01D1042070BD6D1E0120000414
:1028E0000A4909690140814201D1012100E000212A
:1028F0000029EED1054800691C210840002801D0BC
:102900000120E9E70020E7E77800002000200240EE
:1029100070B504460D460120FFF7D0FF0646002E95
:1029200015D100BF0B48406901210843094948619E
:1029300000BF25600120FFF7C1FF064600BF054824
:102940004069400840000349486100BF00BF30466D
:1029500070BD000000200240F8B507460C46002577
:10296000002621E00121A940206808400646002EEB
:1029700019D031463846626800F055F8314638467D
:10298000A26800F065F8606802280CD1FF2E05D817
:1029900031463846226900F01BF804E031463846DB
:1029A000226900F027F86D1C2068E8400028D9D182
:1029B0006068012802D06068022804D13846E268C5
:1029C000216800F03DF8F8BD816270478162704770
:1029D00030B5046A0B464B434B434B431D01ED1A84
:1029E0002346AB430C464C434C434C435443234394
:1029F000036230BD30B50B0A5B430C0A63430C0A1B
:102A000063431C01E41A436AA3430C0A64430D0A9E
:102A10006C430D0A6C4354432343436230BD8161D0
:102A200070478161704730B503680C464C436500C0
:102A30006419A3430C464C4354432343036030BD05
:102A400010B543688B430C4654432343436010BD89
:102A500030B5C3680C464C4365006419A3430C466B
:102A60004C4354432343C36030BD00000348006817
:102A70004008400001490860704700000024004001
:102A80000146044880680840884201D1012070470F
:102A90000020FCE70024004010B50446FFF7E6FFE5
:102AA00000BF0120FFF7ECFF0028FAD16168206A1F
:102AB0000843216808432169084310490968104AFE
:102AC000114008430D490860E168A0680843A16906
:102AD0000843E16908436169084308494968094AAC
:102AE000114008430549486000BF084600680121BD
:102AF00008430249086000BF10BD000000240040E8
:102B000053CFFFFFC2FF030630B5054B84001B59AE
:102B1000CC43A3431343024C8500635130BD0000F6
:102B2000142400400449496B0143034A516300BF28
:102B300000BF00BF70470000001002400449896BCD
:102B40000143034A916300BF00BF00BF704700000C
:102B50000010024010B58A68C26200BF026880237C
:102B60009A430B691A4302604A6803687024A343BE
:102B70001343036000BFCA68036803242402A3430D
:102B80001343036000BF0A68826200BF01224261F2
:102B900000BF024AD343036100BF10BD5F1E0000A7
:102BA00070B502203A490968890889000143384A0A
:102BB000116000BF00BF37480068911508433549D0
:102BC000086000BF00BF00BF3248006801218902D1
:102BD0000840800A0028F6D000206021012252021D
:102BE00013022C4CE4682C4D2C4005461D430D432C
:102BF00015432C43274DEC6000BF00BF28460068FA
:102C0000D10308432946086000BF00BF00BF214828
:102C10000068012149060840400E0028F6D000BF98
:102C20001C48C068491208431A49C86000BF022006
:102C30008968C908C9000143164A916000BF00BFF6
:102C400000BF14488068382108401028F8D10020BF
:102C50001049896807221202914301430D4A91608D
:102C600000BF00BF11468968072212039143014348
:102C7000084A916000BF00BF11468968072212040C
:102C800091430143034A916000BFFDF7B1FC70BD61
:102C9000002002400010024006F8F9FF10B50120A4
:102CA000FFF74CFF012000071E49496B01431D4AF5
:102CB000516300BF00BF00BF00BF00BF1A480068DB
:102CC0000121C90308431849086000BF1E20FFF70F
:102CD00025FD00BF1548006B4008400013490863FC
:102CE00000BF1349C86913490968C909C9010143EB
:102CF000104A116000BF08200C49096B0C22914357
:102D000001430A4A116300BF00BF1046006B012156
:102D100008431146086300BF7D20C000FFF7FEFC9A
:102D200010BD000000100240007000408001014012
:102D3000C003FF1F0011024001000000020000005C
:102D40000400000008000000100000002000000047
:102D500040000000800000000100000001000000B1
:102D6000010000000100000002000000040000005B
:102D70000800000010000000982D0008000000204E
:102D80007C000000F0090008142E00087C000020E0
:102D900004040000000A0008000000000000000019
:102DA000000000000000000000000000FFFF000025
:102DB000FFFF0000FFFF0000FFFF0000FFFF00001B
:102DC0000000000000000000000000000000000003
:102DD00000000000000000000000000000000000F3
:102DE000FFFF0000000000000001000000000000E4
:102DF00000000000000000000000000000000000D3
:102E000000000000000000000000000001000100C0
:042E10000024F400A6
:04000005080000C12E
:00000001FF
